:020000040800F2
:10000000000400209D010008A5010008A7010008C8
:10001000A9010008AB010008AD01000800000000C4
:10002000000000000000000000000000AF01000818
:10003000B101000800000000B3010008B50100088C
:10004000B7010008B7010008B7010008B7010008B0
:10005000B7010008B7010008B7010008B7010008A0
:10006000B7010008B7010008B7010008B701000890
:10007000B7010008B7010008B7010008B701000880
:10008000B7010008B7010008B7010008B701000870
:10009000B7010008B7010008B7010008B701000860
:1000A000B7010008B7010008B7010008B701000850
:1000B000B7010008B7010008B7010008B701000840
:1000C000B7010008B7010008B7010008B701000830
:1000D000B7010008B7010008B7010008B701000820
:1000E000B7010008B7010008B7010008B701000810
:1000F000B7010008B7010008B7010008B701000800
:10010000B7010008B7010008B7010008B7010008EF
:10011000B7010008B7010008B7010008B7010008DF
:10012000B7010008B7010008B7010008B7010008CF
:10013000B7010008B7010008B7010008B7010008BF
:10014000B7010008B7010008B7010008B7010008AF
:10015000B7010008B7010008B7010008B70100089F
:10016000B7010008B7010008B7010008B70100088F
:10017000B7010008B7010008B7010008B70100087F
:10018000B7010008B7010008DFF80CD000F018F83C
:100190000048004725020008000400200648804768
:1001A00006480047FEE7FEE7FEE7FEE7FEE7FEE75C
:1001B000FEE7FEE7FEE7FEE7E5010008890100082B
:1001C000064C074D06E0E06840F0010394E80700A4
:1001D00098471034AC42F6D3FFF7DAFFA8020008C4
:1001E000B8020008704702E008C8121F08C1002AC0
:1001F000FAD170477047002001E001C1121F002AA8
:10020000FBD17047002107E042F6E06100BF0A1E03
:10021000A1F1010399B2FAD1021EA0F1010398B233
:10022000F2D170471E48006840F001001C49086088
:100230001C48006820F440501A49086008460068CD
:1002400040F480500860402048830846006820F44D
:10025000402008600846006840F480400860802024
:1002600048831BE00F48406920F040000D49486179
:100270000846406940F0800048616420FFF7C2FFF3
:100280000848406940F04000064948610846406916
:1002900020F0800048616420FFF7B4FFE2E700002F
:1002A0003038024000000240B80200080000002080
:0802B00000040000F601000843
:040000050800018965
:00000001FF
