:020000040800F2
:10000000200400209D010008730300086B03000812
:100010006F03000887020008910C00080000000030
:100020000000000000000000000000004D05000876
:100030008B02000800000000010400083D060008D3
:10004000B7010008B7010008B7010008B7010008B0
:10005000B7010008B7010008B7010008B7010008A0
:10006000B7010008B7010008B7010008B701000890
:10007000B7010008B7010008B7010008B701000880
:10008000B7010008B7010008B7010008B701000870
:10009000B7010008B7010008B7010008B701000860
:1000A000B7010008B7010008B7010008B701000850
:1000B000CD070008B7010008B7010008B701000824
:1000C000B7010008B7010008B7010008B701000830
:1000D000B7010008B7010008B7010008B701000820
:1000E000B7010008B7010008B7010008B701000810
:1000F000B7010008B7010008B7010008B701000800
:10010000B7010008B7010008AD080008B7010008F2
:10011000B7010008B7010008B7010008B7010008DF
:10012000B7010008B7010008B7010008B7010008CF
:10013000B7010008B7010008B7010008B7010008BF
:10014000B7010008B7010008B7010008B7010008AF
:10015000B7010008B7010008B7010008B70100089F
:10016000B7010008B7010008B7010008B70100088F
:10017000B7010008B7010008B7010008B70100087F
:10018000B7010008B7010008DFF80CD000F04AF80A
:10019000004800477D0F00082004002006488047E3
:1001A00006480047FEE7FEE7FEE7FEE7FEE7FEE75C
:1001B000FEE7FEE7FEE7FEE74106000889010008CA
:1001C0002DE9F05F0546002092469B46884606468C
:1001D000814640241BE0284641464746224600F01F
:1001E00042F853465A46C01A914110D31146184658
:1001F000224600F029F82D1A67EB01084F462246E7
:100200000120002100F020F817EB00094E41201ECC
:10021000A4F10104DFDC484631462A464346BDE8E6
:10022000F09F0000064C074D06E0E06840F0010337
:1002300094E8070098471034AC42F6D3FFF7A8FFC4
:100240008C100008AC100008202A04DB203A00FAC9
:1002500002F1002070479140C2F1200320FA03F31D
:10026000194390407047202A04DB203A21FA02F01B
:100270000021704721FA02F3D040C2F120029140E0
:1002800008431946704700BFFEE77047F0B50A46BD
:1002900000210023002400BF3DE0012505FA01F301
:1002A000156805EA03049C4234D105684F00032613
:1002B000BE40B543056015794E00B540066835432C
:1002C00005601579012D02D01579022D16D18568AA
:1002D0004F000326BE40B543856055794E00B540BA
:1002E000866835438560456801268E40B543456084
:1002F000456896798E40B6B235434560C5684F0073
:100300000326BE40B543C560D5794E00B540C668EA
:100310003543C560491C1029BFD3F0BDF0B500239B
:1003200000244D07ED0E02FA05F3CE1000F1200572
:1003300055F826504E07F70E0F26BE40B543CF1096
:1003400000F1200646F82750CE1000F1200555F8A0
:10035000265045EA0304CE1000F1200545F826405A
:10036000F0BD42694A404261704700BFFEE700BFEE
:10037000FEE7704770B5002100230F22C4781CB33C
:10038000174C246804F4E064C4F5E064C4F3072166
:10039000C1F10404E3B20A4144789C40E1B284789C
:1003A000144021430C07210E0E4C0578615504784A
:1003B00004F01F050124AC4005786D11AD0005F176
:1003C000E025C5F8004109E0047804F01F05012488
:1003D000AC40054D0678761145F8264070BD00000A
:1003E0000CED00E000E400E080E100E002490143A0
:1003F000024A1160704700000000FA050CED00E0B1
:100400007047000029B1064A12680243044B1A6083
:1004100004E0034A12688243014B1A6070470000EF
:100420003038024029B1064A12680243044B1A6070
:1004300004E0034A12688243014B1A6070470000CF
:100440004038024029B1064A12680243044B1A6040
:1004500004E0034A12688243014B1A6070470000AF
:1004600044380240F0B50021002200240225002675
:100470000223324F3F6807F00C0121B1042905D057
:10048000082937D105E02E4F076036E02D4F076071
:1004900033E02A4F3F1F3F68C7F38056274F3F1F67
:1004A0003F6807F03F036EB1264FB7FBF3F7DFF865
:1004B0008CC0ACF1040CDCF800C0CCF3881C07FB4A
:1004C0000CF40CE01E4FB7FBF3F7DFF870C0ACF193
:1004D000040CDCF800C0CCF3881C07FB0CF4174FAD
:1004E0003F1F3F68C7F301477F1C7D00B4FBF5F752
:1004F000076002E0124F076000BF00BF0F4F3F6868
:1005000007F0F0010909104F7A5C0768D74047608F
:100510000A4F3F6807F4E051890A0B4F7A5C47683D
:10052000D7408760054F3F6807F46041490B064F8D
:100530007A5C4768D740C760F0BD000008380240C9
:100540000024F40040787D01000000207047000086
:100550000CB50020019000903448006840F48030D1
:100560003249086000BF3148006800F40030009054
:100570000198401C0190009818B90198B0F5A04F5F
:10058000F1D12A48006800F4003010B10120009039
:1005900001E0002000900098012846D12348403017
:1005A000006840F0805021494031086020480068D0
:1005B00040F440401E4908601C48083000681B4950
:1005C000083108600846006840F4004008600846AA
:1005D000006840F4A05008601648091F0860081F12
:1005E000006840F08070091F086000BF0F48006875
:1005F00000F000700028F9D040F205700E49086044
:100600000A480830006820F00300084908310860F3
:100610000846006840F00200086000BF0348083048
:10062000006800F00C000828F8D10CBD003802402A
:100630000070004008544007003C02407047000032
:1006400010B51548006840F470001349086013485D
:10065000006840F001001149086000200F4908318E
:1006600008600E4800680E4908400C4908600D48B3
:10067000091D0860081F006820F48020091F086019
:10068000002006490C310860FFF762FF4FF0006060
:1006900001498039086010BD88ED00E00038024053
:1006A000FFFFF6FE10300024F0B50C461546002181
:1006B0000022068C4FF6FE773E400684018B028CAA
:1006C0004FF60C7631407E1C06EA03162E4331436A
:1006D0004FF6F576324044F001063243018302843E
:1006E000F0BDF0B50C461546002100220026078C0F
:1006F0004FF6EF7C07EA0C070784018B028C4FF65C
:10070000FF7707EA041640F6FF4739404FF6FF77B8
:1007100007EA033739434FF6FF7707EA05273943DE
:100720004FF65F773A4046F010073A430183028460
:10073000F0BDF0B50C461546002100220026078CBE
:100740004FF6FF6C07EA0C070784818B028C4FF68B
:10075000FF7707EA04264FF60C7739404FF6FF770C
:1007600007EA03172F4339434FF2FF573A4046F445
:1007700080773A4381830284F0BDF0B50C4615467C
:10078000002100220026078C4EF6FF7C07EA0C07AA
:100790000784818B028C4FF6FF7707EA043640F618
:1007A000FF4739404FF6FF7707EA052739434FF6F1
:1007B000FF7707EA0337394345F6FF773A4046F4B7
:1007C00080573A4381830284F0BD000010B50121B7
:1007D000880700F0E5F838B10121880700F0CEF86D
:1007E00040210248FFF7BDFD10BD0000000002409F
:1007F00030B589B004460D4632208DF82000002027
:100800008DF8210001208DF822008DF8230008A822
:10081000FFF7B0FD01210846FFF7F4FD0120069027
:1008200002208DF81C0003208DF81D0000208DF89B
:100830001E0002208DF81F0006A91A48FFF726FDAA
:10084000022200211748FFF769FDADF80C50002087
:10085000ADF80E000494ADF8140003A9124800F09E
:1008600029F901210820FFF7DDFD0020ADF8000087
:10087000ADF802000120ADF804000020ADF806003C
:10088000ADF808006946084800F09BF801220321F2
:10089000054800F0CDF80121034800F072F809B0D6
:1008A00030BD000000000240000C004010B5304890
:1008B000007800F08000002854D101212D4800F07C
:1008C0006FF8D0B12A48007800F04000A8B128485D
:1008D000007800F03F003F280AD12548007840F01A
:1008E0008000234908704FF0FF302349086004E07E
:1008F0001F480078401C1E49087002211D4800F066
:100900004FF878B31A48007800F0400078B11848E2
:10091000007840F0800016490870164800F03DF855
:10092000154908600021134800F08BF81AE00020F8
:100930000F490870104908600D48007840F04000E9
:100940000B49087000210B4800F01BF800210948F2
:1009500000F082F80221074800F073F801210548F1
:1009600000F00FF80321034800F008F810BD000064
:1009700010000020000C004014000020CA43028236
:10098000704721B1028842F00102028004E002882F
:100990004FF6FE731A40028070470146486B70475D
:1009A00030B50246002000230024158A05EA010321
:1009B000958905EA010413B10CB1012000E0002083
:1009C00030BD70B505460C46208850B92389A288F1
:1009D00061882846FFF768FEE188284600F03EF867
:1009E00025E0208804280AD12389A2886188284626
:1009F000FFF777FEE188284600F039F817E02088F5
:100A000008280AD12389A28861882846FFF791FE29
:100A1000E188284600F038F809E02389A288618837
:100A20002846FFF7AAFEE188284600F036F870BD98
:100A30001AB183890B43838102E083898B438381CD
:100A400070470A460021018C4FF6FD73194011438F
:100A5000018470474163704741627047028B4FF6D3
:100A6000F3731A400283028B0A4302837047028B9E
:100A70004FF2FF331A400283028B4FF6FF7303EAF3
:100A800001231A4302837047828B4FF6F3731A4097
:100A90008283828B0A4382837047828B4FF2FF33BB
:100AA0001A408283828B4FF6FF7303EA01231A43B5
:100AB0008283704700220288184B98420ED0184B50
:100AC00098420BD0B0F1804F08D0164B984205D019
:100AD000154B984202D0154B984204D14FF68F73B4
:100AE0001A404B881A43124B984207D0114B984238
:100AF00004D04FF6FF431A400B891A4302804B681B
:100B0000C3620B880385054B984202D0044B984280
:100B100001D18B7A03860123838270470000014054
:100B2000000401400004004000080040000C0040A8
:100B3000001000400014004021B1828942F40052AC
:100B4000828104E082894DF6FF731A4082817047EA
:100B500002460020B1F5007F00D100BF13880B4092
:100B60000BB1012000E000207047F0B503460024DF
:100B700000260025002040F66A17B94200D100BFC8
:100B80001846C1F3421401F01F06012707FA06F5C3
:100B9000012C01D10C3004E0022C01D1103000E016
:100BA00014301AB107682F43076002E00768AF43AB
:100BB0000760F0BD2DE9FF4705460E460024A1461B
:100BC00000BFA046B08900B100BF2C8A24F4405475
:100BD000F08804432C82AC8941F20C608443B088D5
:100BE00031890843718908430443AC81AC8A24F4F9
:100BF0004074B0890443AC826846FFF733FC204858
:100C0000854202D01F48854202D1DDF80C9001E0F8
:100C1000DDF80890A88900F4004040B109EBC90054
:100C200000EB091031684900B0FBF1F707E009EB70
:100C3000C90000EB091031688900B0FBF1F76420AE
:100C4000B7FBF0F004012009642101FB1078A889AA
:100C500000F4004040B1322000EBC800B0FBF1F0DE
:100C600000F00700044308E0322000EB0810642184
:100C7000B0FBF1F000F00F0004432C81BDE8FF87CA
:100C80000010014000140140C1F308028280704747
:100C900000BFFEE70FB4054B10B503A9044A029844
:100CA00000F018F810BC5DF814FB0000010F0008FC
:100CB0001800002002E008C8121F08C1002AFAD15B
:100CC00070477047002001E001C1121F002AFBD1CC
:100CD000704700002DE9FF4F8BB09A460F4604463F
:100CE000002606E025280BD052460D999047641C3B
:100CF000761C20780028F5D10FB03046BDE8F08F83
:100D00000025A94601227D4900E0054314F8013F72
:100D1000203B02FA03F00842F7D120782E2817D1A1
:100D200014F8010F45F004052A280ED06FF02F02A9
:100D30002078A0F1300109290AD809EB890102EBDA
:100D4000410100EB0109641CF2E757F8049B641CA5
:100D500020786C280DD004DC4C2812D06A2811D1E0
:100D600004E074280DD07A280CD10AE045F400156F
:100D700007E0617845F48015814202D1641C05F5D5
:100D80008015641C207869283ED006DC0028B3D08A
:100D900063280BD0642804D136E0732810D075285E
:100DA0005CD052460D999047761CA5E017F8040BCD
:100DB0008DF8000000208DF80100E846012003E0D6
:100DC00057F8048B4FF0FF3069074FF0000501D44E
:100DD0000AE06D1C4D450DDA8542FADB18F8051066
:100DE0000029F6D106E06D1C8542FCDB18F80510E1
:100DF0000029F8D12E4404E018F8010B52460D9951
:100E000090476D1EF8D277E000200A90C5F302509B
:100E10004FF00A0B02280CD001CFC117021E71F14E
:100E200000020CDA0023D0EB030063EB01012D225A
:100E300008E0FF1D27F00707F7E80201EEE72A05A3
:100E400004D52B228DF82420012203E0EA070FD0DD
:100E50002022F7E70DF12008089218E000200A9000
:100E6000C5F302504FF00A0B022803D001CF002136
:100E70000022EFE7FF1D27F00707F7E80201F7E779
:100E80005A460A9BFFF79CF9303208F8012D50EAC8
:100E90000102F5D1ADEB080000F1200B680701D489
:100EA0004FF00109D94502DDA9EB0B0000E000205D
:100EB0008146002506E009A85246405D0D999047FD
:100EC0006D1C761C08988542F5DB04E03020524604
:100ED0000D999047761CB9F10001A9F10109F5DCE3
:100EE00005E018F8010B52460D999047761CBBF1AE
:100EF0000001ABF1010BF4DC641CFAE609280100E7
:100F000070B504460D46E1B20548FFF7BDFE00BFCF
:100F100080210348FFF71CFE0028F9D0204670BD51
:100F2000001001401CB501210846FFF76BFA0220B2
:100F30008DF8050001208DF8070002208DF80400CF
:100F400000208DF806004FF40070009069460A48B2
:100F5000FFF79CF94FF48060009069460648FFF760
:100F600095F9072209210448FFF7D8F907220A2139
:100F70000148FFF7D3F91CBD0000024000BFFFF796
:100F8000D1FF00F057F853214FF0FF30FFF730FC4E
:100F90002CE01748FFF701FDB0F5967F03D1002143
:100FA0001348FFF757FD1348007800F08000E8B1C0
:100FB0001048007800F03F00C51704464FF0FF339B
:100FC00000262146A1FB030705FB037204FB06254F
:100FD000044609480068241845F1000522462B46BE
:100FE00006A0FFF757FE002002490870D1E7000075
:100FF000002000401000002014000020484947480D
:101000003A256C6C642075730D0A000008B54FF426
:10101000C060FFF7EBF925208DF8000001208DF866
:1010200001008DF802008DF803006846FFF7A2F971
:1010300008BD00001FB501210846FFF7E3F90121B3
:101040001020FFF7FFF94FF4E13000900020ADF8D9
:101050000400ADF80600ADF80800ADF80C000C2057
:10106000ADF80A0069460848FFF7A4FDFFF7CEFF78
:10107000012240F225510448FFF777FD0121024883
:10108000FFF75AFD1FBD000000100140AC10000822
:10109000000000201C000000B40C0008C81000086C
:1010A0001C00002004040000C40C00080000000024
:1010B00001020304010203040607080900000000FE
:0810C000000000000000000028
:040000050800018965
:00000001FF
