:020000040800F2
:10000000180400209D010008530C00084B0C000848
:100010004F0C0008ED090008511400080000000012
:10002000000000000000000000000000A50F000814
:10003000F109000800000000590E000895100008A2
:10004000B7010008B7010008B7010008B7010008B0
:10005000B7010008B7010008B7010008B7010008A0
:10006000B7010008B7010008B7010008B701000890
:10007000B7010008B7010008B7010008B701000880
:10008000B7010008B7010008CD070008B701000854
:10009000B7010008B7010008B7010008B701000860
:1000A000B7010008B7010008B7010008B701000850
:1000B000B7010008B7010008B7010008B701000840
:1000C000B7010008B7010008B7010008B701000830
:1000D000B7010008B7010008B7010008B701000820
:1000E000B7010008B7010008B7010008B701000810
:1000F000B7010008B7010008B7010008B701000800
:10010000B7010008B7010008B7010008B7010008EF
:10011000B7010008B7010008B7010008B7010008DF
:10012000B7010008B7010008B7010008B7010008CF
:10013000B7010008B7010008B7010008B7010008BF
:10014000B7010008B7010008B7010008B7010008AF
:10015000B7010008B7010008B7010008B70100089F
:10016000B7010008B7010008B7010008B70100088F
:10017000B7010008B7010008B7010008B70100087F
:10018000B7010008B7010008DFF80CD000F02AFA28
:1001900000480047011E0008180400200648804758
:1001A00006480047FEE7FEE7FEE7FEE7FEE7FEE75C
:1001B000FEE7FEE7FEE7FEE7991000088901000868
:1001C00000F0004230F000400AD0C10D01F560712E
:1001D000C0F3160042EA0151C208400711437047BC
:1001E00000200146704730B50B4601460020202212
:1001F000012409E021FA02F59D4205D303FA02F534
:10020000491B04FA02F52844151EA2F10102F1DC93
:1002100030BD2DE9F05F0546002092469B4688469A
:100220000646814640241BE0284641464746224672
:1002300000F0F9F953465A46C01A914110D31146BD
:100240001846224600F0E0F92D1A67EB01084F46E8
:1002500022460120002100F0D7F917EB00094E419A
:10026000201EA4F10104DFDC484631462A464346FD
:10027000BDE8F09F2DE9FE4F804681EA0300C00FE4
:100280000C46009021F0004123F00045B8EB02003D
:10029000A94105D24046214690461C460B460246DF
:1002A00023F00040104347D0270DC7F30A00C3F3E3
:1002B0000A510290401A019040286BDAC3F31300F0
:1002C00040F4801B0098924620B10023D2EB030A31
:1002D00063EB0B0B01985946C0F14002504600F009
:1002E00093F906460D4650465946019A00F0ABF97F
:1002F00010EB08006141002487EA115284EAE77399
:100300001A4340D0009A62B3019A012A4FEA075279
:1003100015DC001B61EB02014FF0004202EA0752BC
:10032000CDE90042001C41F5801132462B4600F019
:10033000ABF903B0BDE8F08F40462146F9E7001B5A
:1003400061EB0201001C41F5801300185B4120188D
:10035000A2F5001747EB030140EAD570B6196D41CD
:1003600011E06D084FEA360645EAC0754FEA0752BC
:10037000001B61EB0201001C41F5801149084FEAA6
:1003800030000019514132462B4603B0BDE8F04F12
:1003900000F06BB90098012240000023D0EB02026C
:1003A00063EBE073009821464FEAE074B8EB00007D
:1003B00061EB0401E9E783F000435BE781F0004172
:1003C00058E72DE9FE4F81EA030404F0004421F0D0
:1003D000004100944FF0000B23F0004350EA010469
:1003E0005ED052EA03045BD0C3F30A54C1F30A554A
:1003F0002C44A4F2F3340194A0FB0254C1F3130182
:1004000041F48011C3F3130343F4801301FB02444E
:1004100000FB034E840A970A44EA815447EA835753
:10042000A4FB076802958D0A05FB07854FEA932C0C
:1004300004FB0C542705029D4FEA065847EA16377D
:10044000B5EB08056EEB070C870E920E47EA811795
:1004500042EA8312A7FB0201B6EB0B0164EB000436
:100460002B0D43EA0C335E1844EB1C50DA46514620
:10047000E7FB0201C5F313044FEA0B3343EA1453BD
:100480004FEA0432019C43EA0603A4F10C040294EF
:10049000009CCDE900B400F0F7F803B0BDE8F08FA0
:1004A00000200146F9E72DE9F04D81EA030404F04C
:1004B000004B21F0004514464FF0000A23F00041A4
:1004C00050EA050220D054EA01021DD0C5F30A57B4
:1004D0000246C5F31303C1F31300C1F30A5640F4F7
:1004E000801543F48013A7EB0608101BD64608F2CC
:1004F000FD3873EB050002D308F1010801E0921802
:100500005B41B8F1000F03DA00200146BDE8F08D31
:1005100000204FF48011064684460EE0171B73EB53
:10052000050705D3121B63EB050306434CEA010CD8
:1005300049084FEA300092185B4150EA0107EDD1BB
:1005400052EA030012D082EA040083EA050108435C
:1005500005D0101BAB4106D20122002306E0002289
:100560004FF0004302E06FF0010253101AEB060057
:100570004CEB085110EB0A0041EB0B01BDE8F04DCC
:1005800000F073B8C1F30A52C1F3130140F2FF3314
:1005900041F480119A4202DA00200146704740F28D
:1005A00033439A42A2F2334202DC524200F03BB89B
:1005B00000F02AB830B5041E71F1000404DB4FF0DE
:1005C0000044404264EB0101141E73F1000405DB9A
:1005D0001C464FF00043524263EB0403994208BFAC
:1005E000904230BD064C074D06E0E06840F0010344
:1005F00094E8070098471034AC42F6D3FFF7C8FDE3
:100600004C2800086C280008202A04DB203A00FA55
:1006100002F1002070479140C2F1200320FA03F359
:10062000194390407047202A04DB203A21FA02F057
:100630000021704721FA02F3D040C2F1200291401C
:10064000084319467047202A06DBCB17203A41FAA7
:1006500002F043EAE07306E041FA02F3D040C2F14F
:100660002002914008431946704710B5141E73F1DB
:10067000000408DA401C41F1000192185B411A4362
:1006800001D120F0010010BD2DE9F04D92469B46AE
:1006900011B1B1FA81F202E0B0FA80F22032904654
:1006A000FFF7B2FF04460F4640EA0A0041EA0B0199
:1006B00053465A46084313D0114653EA010019D055
:1006C000C8F140025046FFF7AEFF05460E465046C1
:1006D00059464246FFF798FF084305D0012004E041
:1006E00020463946BDE8F08D0020054346EAE07615
:1006F0002C4337430A986305E40AA0EB0800002264
:10070000FD0A44EA47540A3002D500200146E9E7D1
:10071000010510196941DDE9084500196941BDE885
:10072000F04DA2E700220A12D3430360704721B1C3
:10073000826842F00102826003E0826822F00102D6
:10074000826070470021084A1168084A1140D0E9C8
:1007500000231A4383681A43C3681A431143044AA7
:10076000C2F804137047000004230140E030FCFF8E
:10077000002001401CB50121084600F06FFB10204D
:10078000009003208DF8040000208DF807006946D2
:10079000014800F03EF91CBD000002400146C86C53
:1007A00080B2704770B502460020002300240B126F
:1007B000556801268E4005EA060415681D4015B1EE
:1007C0000CB1012000E0002070BD000010B540F227
:1007D00005210848FFF7E6FF012804D10548FFF787
:1007E000DDFF0549088040F205210248FFF79AFF26
:1007F00010BD0000002001401000002010B50B4685
:100800000021D9B2012404FA01F11AB144680C4361
:10081000446002E044688C43446010BD30B5024639
:10082000002000235068104C20400D790C6844EAE9
:1008300005242043506090680C4C2040D1E90354BB
:100840002C438D682C434D7944EA45042043906045
:10085000D06A20F470000C7D641EE4B2234340EAA9
:100860000350D06230BD0000FFFEFFFCFDF7FFC06B
:1008700000B58BB00121080200F010FB00200190B0
:100880004FF480300290002003904FF47060049089
:1008900001A8FFF757FF05A800F09EF8002005907B
:1008A0008DF8180001208DF819000020079008909D
:1008B000099001208DF8280005A90C48FFF7AEFF2C
:1008C000032301220421094800F025F8012240F207
:1008D00005210648FFF792FF01210448FFF727FF93
:1008E000024800F074F80BB000BD00000020014089
:1008F00008B54FF4C06000F0E9F912208DF800004F
:1009000001208DF801008DF802008DF80300684683
:1009100000F0A0F908BDF0B504460D460020002106
:10092000092D11DDE068A5F10A0606EB460707264A
:1009300006FA07F18843A5F10A0606EB460603FA14
:1009400006F10843E0600CE0206905EB4507072647
:1009500006FA07F1884305EB450603FA06F108435A
:100960002061072A0FDA606B561E06EB86071F26EA
:1009700006FA07F18843561E06EB860605FA06F1CD
:100980000843606322E00D2A0FDA206BD61F06EBC6
:1009900086071F2606FA07F18843D61F06EB860650
:1009A00005FA06F10843206310E0E06AA2F10D06A3
:1009B00006EB86071F2606FA07F18843A2F10D060B
:1009C00006EB860605FA06F10843E062F0BD816891
:1009D00041F08041816070470021016001714171E7
:1009E0008160C160016101210175704700BFFEE7B0
:1009F0007047002107E04AF6FF7100BF0A1EA1F10F
:100A0000010399B2FAD1021EA0F1010398B2F2D10A
:100A10007047F0B50A4600210023002400BF3DE0E6
:100A2000012505FA01F3156805EA03049C4234D157
:100A300005684F000326BE40B543056015794E009A
:100A4000B5400668354305601579012D02D015794A
:100A5000022D16D185684F000326BE40B543856040
:100A600055794E00B5408668354385604568012656
:100A70008E40B5434560456896798E40B6B23543A1
:100A80004560C5684F000326BE40B543C560D579B3
:100A90004E00B540C6683543C560491C1029BFD318
:100AA000F0BD00001CB50121084600F0D7F90F2069
:100AB000009002208DF8050000208DF8070001202D
:100AC0008DF8040000208DF8060069464948FFF7BC
:100AD000A0FF0F21484800F0B6F80421454800F077
:100AE000B2F81420FFF785FF0421424800F0A9F86E
:100AF0001420FFF77EFF04213E4800F0A4F80021F7
:100B0000AE2000F079F90021084600F075F90021C7
:100B1000102000F071F90021402000F06DF9002153
:100B2000812000F069F90021CF2000F065F9002153
:100B3000A12000F061F90021C82000F05DF900213A
:100B4000A62000F059F90021A82000F055F9002155
:100B50003F2000F051F90021D32000F04DF9002191
:100B6000084600F049F90021D52000F045F90021A0
:100B7000802000F041F90021D92000F03DF900214A
:100B8000F12000F039F90021DA2000F035F90021D8
:100B9000122000F031F90021DB2000F02DF90021B6
:100BA000402000F029F90021202000F025F9002143
:100BB000022000F021F900218D2000F01DF9002114
:100BC000142000F019F90021A42000F015F90021EB
:100BD000A62000F011F90021AF2000F00DF900214E
:100BE000AF2000F009F900F07BF80021084600F082
:100BF00097F81CBD0000024000040240F0B500233D
:100C000000244D07ED0E02FA05F3CE1000F1200589
:100C100055F826504E07F70E0F26BE40B543CF10AD
:100C200000F1200646F82750CE1000F1200555F8B7
:100C3000265045EA0304CE1000F1200545F8264071
:100C4000F0BD418370470183704700BFFEE700BFDE
:100C5000FEE7704770B5002100230F22C4781CB353
:100C6000174C246804F4E064C4F5E064C4F307217D
:100C7000C1F10404E3B20A4144789C40E1B28478B3
:100C8000144021430C07210E0E4C05786155047861
:100C900004F01F050124AC4005786D11AD0005F18D
:100CA000E025C5F8004109E0047804F01F0501249F
:100CB000AC40054D0678761145F8264070BD000021
:100CC0000CED00E000E400E080E100E002490143B7
:100CD000024A1160704700000000FA050CED00E0C8
:100CE00070B5002419E004F1B001C8B2002100F091
:100CF00083F80021084600F07FF80021102000F062
:100D00007BF8002505E00121002000F075F8681C43
:100D1000C5B2802DF7DB601CC4B2082CE3DB70BDCC
:100D200070B504460D4605F1B001C8B2002100F0CF
:100D300063F8102141EA1410002100F05DF804F07E
:100D40000F0141F00100002100F056F870BD0000D5
:100D50002DE9F04107460E46904600250024A8F1F3
:100D60002000C5B27F2F02DD0027B01CC6B231467D
:100D70003846FFF7D5FF002408E004EB05110F4AC1
:100D8000505C012100F038F8601CC4B2082CF4DB80
:100D9000701CC1B23846FFF7C3FF002409E004EB22
:100DA00005110831054A505C012100F025F8601C4E
:100DB000C4B2082CF3DBBDE8F08100005B22000820
:100DC0002DE9F04104460F46154600260EE0AA5DC7
:100DD00039462046FFF7BCFF04F10800C4B2782C66
:100DE00002DD0024B81CC7B2701CC6B2A85D002882
:100DF000EDD1BDE8F081000070B504460E4626B185
:100E000008211448FFF71FFF03E008211148FFF7EE
:100E100018FF002517E001210E48FFF712FF04F02C
:100E2000800020B102210B48FFF70DFF03E00221F3
:100E30000848FFF706FF01210648FFF704FF600698
:100E4000040E681CC5B2082DE5DB08210148FFF738
:100E5000FAFE70BD000002407047000029B1064A4A
:100E600012680243044B1A6004E0034A126882438A
:100E7000014B1A60704700003038024029B1064A21
:100E800012680243044B1A6004E0034A126882436A
:100E9000014B1A60704700004038024029B1064AF1
:100EA00012680243044B1A6004E0034A126882434A
:100EB000014B1A607047000044380240F0B5002131
:100EC00000220024022500260223324F3F6807F04B
:100ED0000C0121B1042905D0082937D105E02E4F96
:100EE000076036E02D4F076033E02A4F3F1F3F6811
:100EF000C7F38056274F3F1F3F6807F03F036EB18F
:100F0000264FB7FBF3F7DFF88CC0ACF1040CDCF82C
:100F100000C0CCF3881C07FB0CF40CE01E4FB7FBA1
:100F2000F3F7DFF870C0ACF1040CDCF800C0CCF3D0
:100F3000881C07FB0CF4174F3F1F3F68C7F301479E
:100F40007F1C7D00B4FBF5F7076002E0124F0760DD
:100F500000BF00BF0F4F3F6807F0F0010909104FB5
:100F60007A5C0768D74047600A4F3F6807F4E05152
:100F7000890A0B4F7A5C4768D7408760054F3F6806
:100F800007F46041490B064F7A5C4768D740C76059
:100F9000F0BD0000083802400024F40040787D01D4
:100FA00000000020704700000CB500200190009068
:100FB0003448006840F480303249086000BF31484E
:100FC000006800F4003000900198401C01900098E7
:100FD00018B90198B0F5A04FF1D12A48006800F483
:100FE000003010B10120009001E000200090009836
:100FF000012846D123484030006840F08050214904
:10100000403108602048006840F440401E490860B4
:101010001C48083000681B49083108600846006811
:1010200040F4004008600846006840F4A0500860A2
:101030001648091F0860081F006840F08070091FEB
:10104000086000BF0F48006800F000700028F9D069
:1010500040F205700E4908600A480830006820F028
:1010600003000849083108600846006840F00200A3
:10107000086000BF03480830006800F00C00082832
:10108000F8D10CBD00380240007000400854400701
:10109000003C02407047000010B51548006840F45D
:1010A0007000134908601348006840F001001149BE
:1010B000086000200F49083108600E4800680E499A
:1010C00008400C4908600D48091D0860081F0068A9
:1010D00020F48020091F0860002006490C310860B8
:1010E000FFF762FF4FF0006001498039086010BDD2
:1010F00088ED00E000380240FFFFF6FE10300024CB
:1011000010B5FFF737FBFFF7B3FBFFF7F1FB10BD9F
:1011100030B58BB004460D4601210802FFF7AEFE44
:1011200001210846FFF79AFE092207211E48FFF712
:1011300065FD8020099002208DF8280003208DF89D
:10114000290000208DF82A0001208DF82B0009A924
:101150001548FFF75EFCA8B2ADF818000020ADF806
:101160001A000794ADF8200006A9104800F082F894
:101170006020ADF804000120ADF806000220ADF8B3
:10118000100001A9094800F02BF80821074800F0D9
:1011900065F80121054800F00BF80121034800F033
:1011A00013F80BB030BD00000000024000200040EA
:1011B00021B1028842F08002028004E002884FF6EA
:1011C0007F731A400280704721B1028842F0010209
:1011D000028004E002884FF6FE731A4002807047D6
:1011E00070B5002400220023058C4FF6FE763540B2
:1011F0000584028C8388048B4FF68F752C40B51EB6
:101200002C400D882C43751E2A408D892A434D8819
:101210002A43104DA84202D00F4DA84213D14FF6D9
:10122000F7752A40CD892A434FF6FB752A408D88F1
:101230002A434FF6FF652B404FF6FF552B400D8A92
:101240002B434D8A2B43838004838D68456302843E
:1012500070BD000000000140000401400A4600216A
:10126000018B4FF6F77319401143018370474163B7
:101270007047000000220288184B98420ED0184B8D
:1012800098420BD0B0F1804F08D0164B984205D051
:10129000154B984202D0154B984204D14FF68F73EC
:1012A0001A404B881A43124B984207D0114B984270
:1012B00004D04FF6FF431A400B891A4302804B6853
:1012C000C3620B880385054B984202D0044B9842B9
:1012D00001D18B7A0386012383827047000001408D
:1012E000000401400004004000080040000C0040E1
:1012F000001000400014004021B1828942F40052E5
:10130000828104E082894DF6FF731A408281704722
:1013100002460020B1F5007F00D100BF13880B40CA
:101320000BB1012000E000207047F0B50346002417
:1013300000260025002040F66A17B94200D100BF00
:101340001846C1F3421401F01F06012707FA06F5FB
:10135000012C01D10C3004E0022C01D1103000E04E
:1013600014301AB107682F43076002E00768AF43E3
:101370000760F0BD2DE9FF4705460E460024A14653
:1013800000BFA046B08900B100BF2C8A24F44054AD
:10139000F08804432C82AC8941F20C608443B0880D
:1013A00031890843718908430443AC81AC8A24F431
:1013B0004074B0890443AC826846FFF77FFD204843
:1013C000854202D01F48854202D1DDF80C9001E031
:1013D000DDF80890A88900F4004040B109EBC9008D
:1013E00000EB091031684900B0FBF1F707E009EBA9
:1013F000C90000EB091031688900B0FBF1F76420E7
:10140000B7FBF0F004012009642101FB1078A889E2
:1014100000F4004040B1322000EBC800B0FBF1F016
:1014200000F00700044308E0322000EB08106421BC
:10143000B0FBF1F000F00F0004432C81BDE8FF8702
:101440000010014000140140C1F30802828070477F
:1014500000BFFEE70FB4054B10B503A9044A02987C
:1014600000F0EEF810BC5DF814FB0000851D0008CC
:10147000140000200FB4084B10B504A902AA039869
:1014800000F0DEF8044602A9002000F070FC2046BF
:1014900010BC5DF814FB00006F1D000802E008C8D6
:1014A000121F08C1002AFAD170477047002001E0DE
:1014B00001C1121F002AFBD1704700002DE9FF5F18
:1014C00082B00021DDE90430020DDDF840B00343B5
:1014D00018D044F61050A2F2FF324243151411986E
:1014E00001281FD0A5EB0B00401C5FEA000A4FF05B
:1014F00000064E4FDFF83891B046504615D5CAF178
:10150000000413E0119801244AA3012801D16FEAD5
:101510000B010298119AC0E90031C0E9024206B0FD
:10152000BDE8F09FCBF10000DFE704460021404A10
:10153000491842EB0450CDE9001012E0E00707D053
:1015400032463B4640464946FEF73BFF80468946C9
:1015500032463B4610461946FEF733FF06460F4615
:101560006410002CEAD1DDE90401DDE90023BAF1C1
:10157000000F06DAFEF725FF42464B46FEF721FF35
:1015800005E0FEF790FF42464B46FEF78CFF04460F
:101590000E460022284BFFF70DF803D84FF0FF301E
:1015A000014607E00022254B20463146FEF762FE49
:1015B000FEF7E8FF102409E0002C0ADB0A220023D2
:1015C000FEF727FE039B30321A55641E50EA0102D3
:1015D000F2D1641C039AC4F111031444119A012A34
:1015E00003D0012208430DD10AE0084304D00020B3
:1015F0004FF0110B119072E7A3EB0B056D1E0DE080
:101600005B4504DD4FF0000205F1010504E003DA5B
:101610004FF00002A5F10105002AECD002981199C3
:10162000C0E90231C0E9004579E70000000014403C
:101630000000F03F300000000000F0430000E03FF9
:101640002DE9FF4F95B09B468946064600250FE2DF
:10165000252877D100242746F84A0121059400E087
:10166000044316F8013F203B01FA03F01042F7D182
:1016700030782A2811D06FF02F033078A0F1300293
:10168000092A16D8059A44F0020402EB820203EB01
:1016900042021044761C0590EFE759F8042B05929E
:1016A000002A03DA504244F40054059044F0020446
:1016B000761C30782E2816D116F8010F44F0040459
:1016C0002A280DD06FF02F023078A0F13003092BBB
:1016D00009D807EB870302EB4303C718761CF3E72F
:1016E00059F8047B761C30786C280FD006DC4C2827
:1016F00017D068280DD06A2814D104E0742810D0BF
:101700007A280FD10DE044F400140AE044F4801468
:1017100001E044F440147278824202D104F580144E
:10172000761C761C307866280BD013DC582877D0CE
:1017300009DC002875D04528F6D04628F4D0472883
:101740001AD19DE118E0632835D0642879D0652846
:1017500012D195E1702873D008DC6728F1D0692890
:101760006FD06E280DD06F2806D1B5E073282CD02D
:10177000752875D0782874D05A46179990476D1CF3
:1017800075E1C4F30250022809D003280DD0D9F81E
:10179000001004280DD00D6009F1040967E1D9F8A3
:1017A0000010EA17C1E90052F6E7D9F800100D80E1
:1017B000F2E70D70F0E719F8041B8DF80010002017
:1017C0008DF80100EA46012003E059F804AB4FF020
:1017D000FF3061074FF0000102D40DE008F1010174
:1017E0008846B9420FDA8045F8DB1AF8081000295C
:1017F000F4D108E008F1010188468142FADB1AF8C9
:1018000008100029F6D105985B46A0EB0807214691
:101810003846179A00F094FA284400EB080507E0D0
:101820004DE029E10DE01AF8010B5A46179990474F
:10183000B8F10108F7D25B4621463846179A13E102
:1018400042E00A220092C4F302524FF0000A022A38
:1018500008D059F804CB032A4FEAEC710AD00DE006
:1018600029E02AE009F1070121F00702F2E802C1AC
:10187000914609E00FFA8CFC4FEAEC71042A03D17F
:101880004FFA8CFC4FEAEC71002907DA0A46002176
:10189000DCF1000C61EB02012D2202E0220504D5EF
:1018A0002B228DF80420012203E0E20701D0202240
:1018B000F7E7904659E00A2102E010220DE01021DE
:1018C0004FF0000A00910BE010224FF0000A44F0A4
:1018D00004040827009203E008224FF0000A009257
:1018E000C4F30252022A05D059F804CB0021032A7E
:1018F00008D009E009F1070121F00702F2E802C16E
:10190000914605E01FFA8CFC042A01D10CF0FF0C73
:101910004FF00008220728D5702806D0009B83F0DE
:10192000100353EA0A0305D00EE040228DF804208C
:10193000012208E05CEA010206D030228DF8042082
:101940008DF8050002229046009B83F0080353EABD
:101950000A030AD15CEA010201D1620705D53022EF
:101960008DF804204FF001087F1E582804D034A0C1
:1019700003900EA802900DE036A0F9E753466046AA
:10198000009AFEF746FC84460398825C0298401E4B
:10199000029002705CEA0100F0D1029806A9081AD0
:1019A00000F1200A600702D524F4803400E001270A
:1019B000574502DDA7EB0A0000E0002000EB0A011A
:1019C000009005984144401A0590E00306D45B4618
:1019D0002146179A059800F0B3F90544002706E060
:1019E00001A85A46C05D179990476D1C7F1C47455A
:1019F000F6DBE0030CD55B462146179A059800F00C
:101A00009FF9054404E030205A46179990476D1C11
:101A10000099481E00900029F5DC08E00298029920
:101A20005A460078491C0291179990476D1CBAF1EB
:101A30000001AAF1010AF1DC65E1000009280100BA
:101A40003031323334353637383961626364656634
:101A500000000000303132333435363738394142F6
:101A6000434445460000000000F058F90544761C48
:101A7000307800287FF4ECAD19B02846BDE8F08F2F
:101A8000620700D4062709F1070222F0070CFCE8E0
:101A90000223E14603F000485FEA080C02D00FF28F
:101AA000702C0DE05FEA045C02D50FF2682C07E0B1
:101AB0005FEAC47C02D00FF2602C01E0AFF2700C40
:101AC0004FF0FF3823F00043CDF850C065280CD00C
:101AD00006DC452809D046281DD047283DD13DE0E9
:101AE000662818D067287ED138E00021112F01DB4D
:101AF000112000E0781CCDE9000106A90EA8FFF72F
:101B0000DDFCDDE90F010E9A03910021009207F13F
:101B1000010A04914DE04FF000400097CDE901101B
:101B200006A90EA8FFF7CAFCDDE90F0203920E9B7F
:101B300011990022DDF80CA00093049211B9791CD0
:101B400000EB010AB7EB0A0004D4C0F1FF3007F143
:101B5000010A0490AAEB0700019044E0012F00DA8B
:101B600001270021112F01DD112000E03846CDE9C9
:101B7000000106A90EA8FFF7A1FCDDE90F010E9AEE
:101B80000391002104910092BA4621070CD40399D5
:101B9000514500DA8A46BAF1010F05DD009AAAF133
:101BA0000101515C302908D0B84202DA10F1040F6B
:101BB00006DA0121CDE9011015E0AAF10101E9E7FA
:101BC000002805DC049901440491AAEB000102E01D
:101BD000411C514500DD8A460499401A401C019081
:101BE0004FF000400290200704D40198504501DBDB
:101BF000CDF8048000208DF84F0002980DF14F07BA
:101C0000B0F1004F25D02B200E9002984FF0020823
:101C100000280CDA404202902D200E9007E00A21A5
:101C20000298FEF7E0FA3031029007F8011DB8F192
:101C30000001A8F10108F2DC02980028EFD1791E1A
:101C40000E980870307800F0200040F0450007F84A
:101C5000020D12A8C01B00F107081498007800B10B
:101C6000012000EB0A01019801EBE0710598414465
:101C7000401A401E0590E00306D45B462146179AA1
:101C8000059800F05DF805441498007818B15A469C
:101C9000179990476D1CE00324D55B462146179A9F
:101CA000059800F04DF805441CE00498002807DB77
:101CB000DDE90301884203DD0098405C179901E0EB
:101CC000179930205A469047049805F10105401CA9
:101CD00004900198401E019004D12E205A46179975
:101CE00090476D1CBAF10001AAF1010ADDDC05E0A4
:101CF00017F8010B5A46179990476D1CB8F100016F
:101D0000A8F10108F4DC5B462146179A0598ABE67A
:101D10002D0000002B000000200000002DE9F04104
:101D2000044600251E461746880404D405E03946BB
:101D30002020B0476D1C641EF9D52846BDE8F0810F
:101D40002DE9F041044600251E469046C80301D502
:101D5000302700E02027880404D505E041463846B6
:101D6000B0476D1C641EF9D52846BDE8F0810A68AD
:101D7000531C0B601070704700E0401E0028FCD11F
:101D80007047000070B504460D46E1B20548FFF704
:101D90005BFB00BF80210348FFF7BAFA0028F9D0A7
:101DA000204670BD001001401CB501210846FFF718
:101DB00055F802208DF8050001208DF8070002205B
:101DC0008DF8040000208DF806004FF4007000909C
:101DD00069460A48FEF71DFE4FF480600090694690
:101DE0000648FEF716FE072209210448FEF706FF03
:101DF00007220A210148FEF701FF1CBD0000024036
:101E00002DED048B8AB0002401253C4B0FCBCDE98E
:101E10000823CDE90601394B10330FCBCDE904235C
:101E2000CDE90201FFF7C0FF00F0C8F834A0FFF7CA
:101E300011FBFEF737FEFEF753FF06AA0021102024
:101E4000FEF7BEFF02AA04210020FEF7B9FFFFF74C
:101E500057F9532140F2E730FFF75AF94DE02E4889
:101E6000FFF78AFF15B1601C84B201E0601E84B2E6
:101E7000312C00DD002504B901252848008800EE3A
:101E8000100AB8EE400A9FED261AC0EE010A9FED37
:101E9000250A20EE808A2148018823A0FFF7DAFA7C
:101EA00018EE100AFEF78CF941EC190B53EC192BC4
:101EB00026A0FFF7CFFA9FED2E0A28EE000ABDEE0E
:101EC000C00A10EE101A40F6C4122AA0FFF7C2FA98
:101ED00018EE100AFEF774F941EC190B53EC192BAC
:101EE00029A16846FFF7C6FA6A4604213C20FEF79E
:101EF00067FF21462648FFF7BAF9B0E7142000082B
:101F000054686973206973207468652050574D2D9B
:101F10004441430A00000000FFFF0F0010000020B2
:101F200000008045333353400D0A20546865206318
:101F3000757272656E742041442076616C756520FF
:101F40003D20307825303458200D0A000D0A2054E9
:101F500068652063757272656E74204144207661F5
:101F60006C7565203D2025662056200D0A00000076
:101F700000007A446261636B3D25643B7461726763
:101F800065743D25640A000025302E32660000008D
:101F90000020004008B54FF4C060FEF797FE2520F2
:101FA0008DF8000001208DF801008DF802008DF8F9
:101FB00003006846FEF74EFE08BD00001FB5012174
:101FC0000846FEF74BFF01211020FEF767FF4FF494
:101FD000E13000900020ADF80400ADF80600ADF847
:101FE0000800ADF80C000C20ADF80A00694608485E
:101FF000FFF7C0F9FFF7CEFF012240F22551044858
:10200000FFF793F901210248FFF776F91FBD0000A1
:10201000001001405448452050574D20544553541A
:102020000000000054484520563A0000000000001F
:102030000000000000000000000000002F00000071
:10204000000700070000147F147F1400242A7F2A51
:10205000120062640813230036495522500000051F
:1020600003000000001C224100000041221C00006F
:1020700014083E08140008083E0808000000A0608C
:102080000000080808080800006060000000201038
:10209000080402003E5149453E0000427F400000D6
:1020A0004261514946002141454B31001814127FCD
:1020B00010002745454539003C4A49493000017127
:1020C00009050300364949493600064949291E00D9
:1020D0000036360000000056360000000814224189
:1020E000000014141414140000412214080002010A
:1020F00051090600324959513E007C1211127C00F0
:102100007F49494936003E41414122007F414122F9
:102110001C007F49494941007F09090901003E41EE
:1021200049497A007F0808087F0000417F4100008C
:102130002040413F01007F08142241007F40404081
:1021400040007F020C027F007F0408107F003E41A8
:1021500041413E007F09090906003E4151215E00D0
:102160007F091929460046494949310001017F018B
:1021700001003F4040403F001F2040201F003F40E3
:1021800038403F0063140814630007087008070014
:10219000615149454300007F41410000552A552ABD
:1021A00055000041417F000004020102040040404C
:1021B00040404000000102040000205454547800C4
:1021C0007F4844443800384444442000384444485C
:1021D0007F00385454541800087E0901020018A4E6
:1021E000A4A47C007F080404780000447D40000023
:1021F0004080847D00007F102844000000417F4023
:1022000000007C04180478007C080404780038443A
:1022100044443800FC242424180018242418FC000A
:102220007C0804040800485454542000043F4440EF
:1022300020003C4040207C001C2040201C003C40F2
:1022400030403C004428102844001CA0A0A07C0082
:102250004464544C4414141414141400000000007A
:102260000000000000000000000000000000F80076
:10227000000000000000333000000000100C0610C9
:102280000C0600000000000000000040C07840C0C4
:10229000784000043F04043F040400007088FC08F8
:1022A000300000001820FF211E0000F008F000E0C0
:1022B00018000000211C031E211E0000F008887079
:1022C0000000001E2123241927211010160E0000E3
:1022D0000000000000000000000000000000E01806
:1022E000040200000000071820400000020418E06B
:1022F0000000000040201807000000404080F080EF
:102300004040000202010F01020200000000F00044
:102310000000000101011F01010100000000000098
:1023200000000080B070000000000000000000000D
:102330000000000001010101010101000000000096
:1023400000000000303000000000000000000080AD
:10235000601804006018060100000000E010080882
:1023600010E000000F102020100F00001010F800E7
:102370000000000020203F20200000007008080816
:10238000887000003028242221300000300888881E
:102390004830000018202020110E000000C020103E
:1023A000F8000000070424243F240000F80888886F
:1023B0000808000019212020110E0000E010888874
:1023C000180000000F112020110E0000380808C866
:1023D0003808000000003F00000000007088080876
:1023E000887000001C222121221C0000E010080837
:1023F00010E0000000312222110F00000000C0C0D8
:1024000000000000000030300000000000008000EC
:1024100000000000008060000000000000804020FC
:102420001008000001020408102000404040404015
:102430004040000404040404040400000810204088
:102440008000000020100804020100007048080805
:1024500008F0000000003036010000C030C828E855
:1024600010E0000718272423140B000000C038E0F8
:10247000000000203C23020227382008F8888888C2
:10248000700000203F202020110E00C030080808F6
:10249000083800071820202010080008F80808084D
:1024A00010E000203F202020100F0008F88888E866
:1024B000081000203F20202320180008F88888E812
:1024C000081000203F200003000000C0300808086A
:1024D00038000007182020221E020008F80800001B
:1024E00008F808203F210101213F20000808F808D2
:1024F0000800000020203F2020000000000808F80D
:10250000080800C08080807F00000008F888C0288C
:10251000180800203F20012638200008F808000095
:10252000000000203F20202020300008F8F800F8AC
:10253000F80800203F003F003F200008F830C000AE
:1025400008F808203F200007183F00E0100808089E
:1025500010E0000F10202020100F0008F8080808D5
:1025600008F000203F210101010000E010080808E8
:1025700010E0000F18242438504F0008F88888888D
:10258000887000203F2000030C302000708808086D
:102590000838000038202121221C00180808F808FB
:1025A0000818000000203F2000000008F808000084
:1025B00008F808001F202020201F0008788800004D
:1025C000C83808000007380E010000F80800F800BD
:1025D00008F800033C0700073C03000818688080E7
:1025E00068180820302C03032C30200838C800C895
:1025F0003808000000203F2000000010080808C82C
:102600003808002038262120201800000000FE0293
:102610000202000000007F40404000000C30C0007B
:10262000000000000000010638C00000020202FEA7
:10263000000000004040407F000000000004020253
:102640000204000000000000000000000000000084
:102650000000008080808080808080000202040072
:1026600000000000000000000000000000808080EA
:102670008000000019242222223F2008F8008080D8
:10268000000000003F112020110E0000000080809B
:10269000800000000E11202020110000000080802A
:1026A00088F800000E112020103F2000008080805C
:1026B000800000001F222222221300008080F08868
:1026C0008888180020203F202000000000808080A3
:1026D000808000006B94949493600008F8008080E0
:1026E000800000203F210000203F200080989800BB
:1026F0000000000020203F20200000000000809803
:1027000098000000C08080807F000008F8000080F2
:10271000808000203F24022D302000000808F800AF
:102720000000000020203F2020000080808080806A
:10273000808000203F20003F20003F80800080807C
:10274000800000203F210000203F2000008080808A
:10275000800000001F202020201F0080800080803B
:1027600000000080FFA12020110E000000008080EA
:10277000808000000E112020A0FF808080800080DB
:1027800080800020203F2120000100000080808008
:102790008080000033242424241900008080E080FD
:1027A0008000000000001F2020000080800000004A
:1027B000808000001F202020103F208080800000AB
:1027C00080808000010E30080601008080008000BB
:1027D0008080800F300C030C300F00008080008060
:1027E0008080000020312E0E31200080808000008B
:1027F00080808080818E701806010000808080803B
:102800008080000021302C22213000000000008058
:102810007C020200000000003F404000000000FF7A
:1028200000000000000000FF0000000002027C80A9
:102830000000000040403F000000000006010102CF
:102840000204040000000000000000006C280008E2
:1028500000000020180000009C14000884280008D4
:102860001800002000040000AC1400080000000064
:102870000102030401020304060708090000000026
:042880000000000054
:040000050800018965
:00000001FF
