:020000040800F2
:10000000100800209D0100089F04000897040008C4
:100010009B0400083B020008230B000800000000BE
:100020000000000000000000000000009D07000824
:100030003F02000800000000710600088D0800085B
:10004000B7010008B7010008B7010008B7010008B0
:10005000B7010008B7010008B7010008B7010008A0
:10006000B7010008B7010008B7010008B701000890
:10007000B7010008B7010008B7010008B701000880
:10008000B7010008B7010008B7010008B701000870
:10009000B7010008B7010008B7010008B701000860
:1000A000B7010008B7010008B7010008B701000850
:1000B000B7010008B7010008B7010008B701000840
:1000C000B7010008B7010008B7010008B701000830
:1000D000B7010008F9080008B7010008B7010008D7
:1000E000B7010008B7010008B7010008B701000810
:1000F000B7010008B7010008B7010008B701000800
:10010000B7010008B7010008B7010008B7010008EF
:10011000B7010008B7010008B7010008B7010008DF
:10012000B7010008B7010008B7010008B7010008CF
:10013000B7010008B7010008B7010008B7010008BF
:10014000B7010008B7010008B7010008B7010008AF
:10015000B7010008B7010008B7010008B70100089F
:10016000B7010008B7010008B7010008B70100088F
:10017000B7010008B7010008B7010008B70100087F
:10018000B7010008B7010008DFF80CD000F018F83C
:1001900000480047F90B0008100800200648804777
:1001A00006480047FEE7FEE7FEE7FEE7FEE7FEE75C
:1001B000FEE7FEE7FEE7FEE7910800088901000878
:1001C000064C074D06E0E06840F0010394E80700A4
:1001D00098471034AC42F6D3FFF7DAFFD00C000892
:1001E000F00C000870B58C1810F8015B15F00703CF
:1001F00001D110F8013B2A1106D110F8012B03E0C0
:1002000010F8016B01F8016B5B1EF9D12B0705D4C7
:100210000023521E0DD401F8013BFAE710F8013B10
:10022000CB1A921C03E013F8015B01F8015B521E2C
:10023000F9D5A142D8D3002070BD00BFFEE77047BA
:10024000002107E04AF6FF7100BF0A1EA1F1010379
:1002500099B2FAD1021EA0F1010398B2F2D170470F
:10026000F0B50A4600210023002400BF3DE001252F
:1002700005FA01F3156805EA03049C4234D10568C8
:100280004F000326BE40B543056015794E00B540CA
:100290000668354305601579012D02D01579022DC8
:1002A00016D185684F000326BE40B5438560557959
:1002B0004E00B540866835438560456801268E400E
:1002C000B5434560456896798E40B6B23543456082
:1002D000C5684F000326BE40B543C560D5794E00C2
:1002E000B540C6683543C560491C1029BFD3F0BD71
:1002F0001CB50121084600F0BDF90F200090022036
:100300008DF8050000208DF8070001208DF804000D
:1003100000208DF8060069464948FFF7A1FF0F212C
:10032000484800F0B6F80421454800F0B2F814201F
:10033000FFF786FF0421424800F0A9F81420FFF7D8
:100340007FFF04213E4800F0A4F80021AE2000F019
:100350005FF90021084600F05BF90021102000F051
:1003600057F90021402000F053F90021812000F0CE
:100370004FF90021CF2000F04BF90021A12000F01F
:1003800047F90021C82000F043F90021A62000F021
:100390003FF90021A82000F03BF900213F2000F0A8
:1003A00037F90021D32000F033F90021084600F08E
:1003B0002FF90021D52000F02BF90021802000F03A
:1003C00027F90021D92000F023F90021F12000F0C5
:1003D0001FF90021DA2000F01BF90021122000F0A3
:1003E00017F90021DB2000F013F90021402000F074
:1003F0000FF90021202000F00BF90021022000F06D
:1004000007F900218D2000F003F90021142000F0ED
:10041000FFF80021A42000F0FBF80021A62000F046
:10042000F7F80021AF2000F0F3F80021AF2000F032
:10043000EFF800F07BF80021084600F0D2F81CBD70
:100440000000024000040240F0B5002300244D07E4
:10045000ED0E02FA05F3CE1000F1200555F82650F6
:100460004E07F70E0F26BE40B543CF1000F1200611
:1004700046F82750CE1000F1200555F8265045EAE1
:100480000304CE1000F1200545F82640F0BD41835D
:1004900070470183704700BFFEE700BFFEE770476B
:1004A00070B5002100230F22C4781CB3174C2468B8
:1004B00004F4E064C4F5E064C4F30721C1F104046A
:1004C000E3B20A4144789C40E1B28478144021436D
:1004D0000C07210E0E4C05786155047804F01F05B9
:1004E0000124AC4005786D11AD0005F1E025C5F89B
:1004F000004109E0047804F01F050124AC40054DDB
:100500000678761145F8264070BD00000CED00E03D
:1005100000E400E080E100E002490143024A11608A
:10052000704700000000FA050CED00E070B50024F3
:1005300019E004F1B001C8B2002100F069F800210F
:10054000084600F065F80021102000F061F8002551
:1005500005E00121002000F05BF8681CC5B2802D89
:10056000F7DB601CC4B2082CE3DB70BD2DE9F05F43
:1005700006460F4690461C46DDF828A04FF0000BBB
:10058000E11704EB5171C910A4EBC10131B9204648
:10059000E11704EB5171C1F3C70506E02046E117EE
:1005A00004EB5171C910491CCDB23D4615E02946F6
:1005B000304600F016F8B1460BE059460BF1010B3E
:1005C0001AF80100012100F023F809F1010000F000
:1005D000FF09C145F1DB681CC5B2A542E7DBBDE8F8
:1005E000F09F70B504460D4605F1B001C8B2002178
:1005F00000F00EF8102141EA1410002100F008F874
:1006000004F00F0141F00100002100F001F870BD7D
:1006100070B504460E4626B108211448FFF739FF8D
:1006200003E008211148FFF732FF002517E0012100
:100630000E48FFF72CFF04F0800020B102210B4888
:10064000FFF727FF03E002210848FFF720FF012101
:100650000648FFF71EFF6006040E681CC5B2082D91
:10066000E5DB08210148FFF714FF70BD00000240E0
:100670007047000029B1064A12680243044B1A6011
:1006800004E0034A12688243014B1A60704700007D
:100690003038024029B1064A12680243044B1A60FE
:1006A00004E0034A12688243014B1A60704700005D
:1006B00044380240F0B50021002200240225002623
:1006C0000223324F3F6807F00C0121B1042905D005
:1006D000082937D105E02E4F076036E02D4F07601F
:1006E00033E02A4F3F1F3F68C7F38056274F3F1F15
:1006F0003F6807F03F036EB1264FB7FBF3F7DFF813
:100700008CC0ACF1040CDCF800C0CCF3881C07FBF7
:100710000CF40CE01E4FB7FBF3F7DFF870C0ACF140
:10072000040CDCF800C0CCF3881C07FB0CF4174F5A
:100730003F1F3F68C7F301477F1C7D00B4FBF5F7FF
:10074000076002E0124F076000BF00BF0F4F3F6815
:1007500007F0F0010909104F7A5C0768D74047603D
:100760000A4F3F6807F4E051890A0B4F7A5C4768EB
:10077000D7408760054F3F6807F46041490B064F3B
:100780007A5C4768D740C760F0BD00000838024077
:100790000024F40040787D01000000207047000034
:1007A0000CB50020019000903448006840F480307F
:1007B0003249086000BF3148006800F40030009002
:1007C0000198401C0190009818B90198B0F5A04F0D
:1007D000F1D12A48006800F4003010B101200090E7
:1007E00001E0002000900098012846D123484030C5
:1007F000006840F08050214940310860204800687E
:1008000040F440401E4908601C48083000681B49FD
:10081000083108600846006840F400400860084657
:10082000006840F4A05008601648091F0860081FBF
:10083000006840F08070091F086000BF0F48006822
:1008400000F000700028F9D040F205700E490860F1
:100850000A480830006820F00300084908310860A1
:100860000846006840F00200086000BF03480830F6
:10087000006800F00C000828F8D10CBD00380240D8
:100880000070004008544007003C024070470000E0
:1008900010B51548006840F470001349086013480B
:1008A000006840F001001149086000200F4908313C
:1008B00008600E4800680E4908400C4908600D4861
:1008C000091D0860081F006820F48020091F0860C7
:1008D000002006490C310860FFF762FF4FF000600E
:1008E00001498039086010BD88ED00E00038024001
:1008F000FFFFF6FE1030002410B540F225511848D5
:1009000000F04DF810B3164800F002F91549164AE8
:100910001278885414480078401C1349087008461F
:100920000078401E0F49085CFF2810D10846007867
:10093000FE2808D10C4801780A4800F01DF9002073
:10094000094908700AE000200749087006E00648D7
:100950000078062802D100200349087010BD00006D
:1009600000100140000400200604002021B182890B
:1009700042F40052828104E082894DF6FF731A40EE
:100980008281704702460020B1F5007F00D100BF90
:1009900013880B400BB1012000E00020704770B5B8
:1009A0000246002400230025002040F66A16B142CA
:1009B00000D100BFC1F3421501F01F03012606FA62
:1009C00003F3012D02D19689334006E0022D02D1B6
:1009D000168A334001E0968A33400C12012606FA4B
:1009E00004F41688344013B10CB1012000E000205B
:1009F00070BDF0B50346002400260025002040F617
:100A00006A17B94200D100BF1846C1F3421401F081
:100A10001F06012707FA06F5012C01D10C3004E06E
:100A2000022C01D1103000E014301AB107682F43B6
:100A3000076002E00768AF430760F0BD2DE9FF479C
:100A400005460E460024A14600BFA046B08900B16D
:100A500000BF2C8A24F44054F08804432C82AC89D3
:100A600041F20C608443B08831890843718908439E
:100A70000443AC81AC8A24F44074B0890443AC8252
:100A80006846FFF717FE2048854202D01F4885427E
:100A900002D1DDF80C9001E0DDF80890A88900F49F
:100AA000004040B109EBC90000EB09103168490072
:100AB000B0FBF1F707E009EBC90000EB0910316862
:100AC0008900B0FBF1F76420B7FBF0F004012009C6
:100AD000642101FB1078A88900F4004040B1322065
:100AE00000EBC800B0FBF1F000F00700044308E0A1
:100AF000322000EB08106421B0FBF1F000F00F0091
:100B000004432C81BDE8FF87001001400014014020
:100B100001468888C0F308007047C1F3080282804C
:100B2000704700BFFEE70000014A024900F013B819
:100B30007D0B00080804002002E008C8121F08C14D
:100B4000002AFAD170477047002001E001C1121F4E
:100B5000002AFBD170472DE9F04116460F460446A6
:100B6000002503E03946B047641C6D1C207800283E
:100B7000F8D12846BDE8F0817047000070B5044602
:100B80000D46E1B20548FFF7C8FF00BF80210348CA
:100B9000FFF7F8FE0028F9D0204670BD0010014094
:100BA0001CB501210846FFF765FD02208DF8050000
:100BB00001208DF8070002208DF8040000208DF838
:100BC00006004FF40070009069460A48FFF748FBA2
:100BD0004FF48060009069460648FFF741FB07220A
:100BE00009210448FFF730FC07220A210148FFF7DA
:100BF0002BFC1CBD0000024008B5FFF7D1FF00F040
:100C00003BF808A0FFF790FFFFF772FBFFF78EFCA1
:100C100007E00E4808237E22002100900846FFF7D7
:100C2000A5FCF6E7746869732069732073746D33EB
:100C30003266340A4920616D204F4C45442D434FA4
:100C400044452D544558540A00000000100000206F
:100C500008B54FF4C060FFF75FFC25208DF8000059
:100C600001208DF801008DF802008DF80300684620
:100C7000FFF716FC08BD00001FB501210846FFF76D
:100C8000F9FC01211020FFF705FD4FF4E130009041
:100C90000020ADF80400ADF80600ADF80800ADF88E
:100CA0000C000C20ADF80A0069460848FFF7C6FEA4
:100CB000FFF7CEFF012240F225510448FFF799FECD
:100CC00001210248FFF752FE1FBD00000010014045
:100CD000F00C0008000000200C040000E4010008F3
:100CE000B80E00080C04002004040000480B0008A3
:100CF000412D0102030404B5060708090521F0F09F
:100D0000E08014F8FCF8073BC0F0F87E78700D1016
:100D1000C0FFFFFE13071BFF9FC0C0F060000D184F
:100D20001C9EFFFFEFE7E3FDFEF07838051780FE1D
:100D3000FCE050120E7CF8E0F0F87CFFF7F3F1785D
:100D4000BCFCFEFE3C00101778F8FC7C3EFFFF7FE9
:100D500087C3C1E070F8F01A60391B7F7FA40008D8
:100D600017DFE771383C1E0719210514F0FE3C1807
:100D70001C7FFEFBF61B7F5F232EFEFF9F0701AC4F
:100D800012801AC09227FCFF1FFF7B712BFEFF15FC
:100D90000910D219241E781C0E06033A0317E0C06E
:100DA000080913060E0E8FFFFF3F0342411F7B7B96
:100DB0007D3C3E9EE8553F1F0F031930280AFD0376
:100DC0000331BBFFFFEF027D0213FF1D070F1F0F53
:100DD000EC1D787C7E3F7E09165E080D1440F0F80D
:100DE0007E1F070D1C3CF8F0E0C01809F8F8FC7CE9
:100DF000BEFFFF7E7E620E253F7F7F1F15031F3FD4
:100E00003F1E030F1E3F3F66011A1B183C7E012147
:100E10004A03D8D915B809070703E1E0C0C0DF418C
:100E2000ABC0C0031905114908490119B31BC0C063
:100E300004591312802BC1C35B3916592F690E69EF
:100E400014693E5954992E113808C0C103C707C709
:100E5000C317291319FC1BFFC08E2DFFFF1FFD06B2
:100E60001E013FFCFF0F081BCCCC16280A1C7DF787
:100E7000C077EFCEFD7BAF29045501FFFE071E7F33
:100E8000E1C0E17F13430C0C1B73FF241A0E1413F3
:100E9000F37F1A7F4F2A7F2E12014CFFEE0CE819C8
:100EA0001413F3732BFFEF0F2965C00A3FFFFF8078
:080EB000FC3F33FFF0000000DD
:040000050800018965
:00000001FF
