:020000040800F2
:10000000000400209D010008A102000899020008D8
:100010009D020008E501000821040008000000001E
:10002000000000000000000000000000C502000801
:10003000E901000800000000A3020008B503000861
:10004000B7010008B7010008B7010008B7010008B0
:10005000B7010008B7010008B7010008B7010008A0
:10006000B7010008B7010008B7010008B701000890
:10007000B7010008B7010008B7010008B701000880
:10008000B7010008B7010008B7010008B701000870
:10009000B7010008B7010008B7010008B701000860
:1000A000B7010008B7010008B7010008B701000850
:1000B000B7010008B7010008B7010008B701000840
:1000C000B7010008B7010008B7010008B701000830
:1000D000B7010008B7010008B7010008B701000820
:1000E000B7010008B7010008B7010008B701000810
:1000F000B7010008B7010008B7010008B701000800
:10010000B7010008B7010008B7010008B7010008EF
:10011000B7010008B7010008B7010008B7010008DF
:10012000B7010008B7010008B7010008B7010008CF
:10013000B7010008B7010008B7010008B7010008BF
:10014000B7010008B7010008B7010008B7010008AF
:10015000B7010008B7010008B7010008B70100089F
:10016000B7010008B7010008B7010008B70100088F
:10017000B7010008B7010008B7010008B70100087F
:10018000B7010008B7010008DFF80CD000F018F83C
:10019000004800470D05000800040020064880477D
:1001A00006480047FEE7FEE7FEE7FEE7FEE7FEE75C
:1001B000FEE7FEE7FEE7FEE7B90300088901000855
:1001C000064C074D06E0E06840F0010394E80700A4
:1001D00098471034AC42F6D3FFF7DAFF5805000811
:1001E0006805000800BFFEE77047F0B50A46002129
:1001F0000023002400BF3DE0012505FA01F3156846
:1002000005EA03049C4234D105684F000326BE4032
:10021000B543056015794E00B54006683543056065
:100220001579012D02D01579022D16D185684F0060
:100230000326BE40B543856055794E00B5408668BB
:1002400035438560456801268E40B5434560456865
:1002500096798E40B6B235434560C5684F00032697
:10026000BE40B543C560D5794E00B540C66835433C
:10027000C560491C1029BFD3F0BD02460020136998
:100280000B400BB1012000E0002070474183704714
:1002900042694A404261704700BFFEE700BFFEE787
:1002A0007047704729B1064A12680243044B1A602E
:1002B00004E0034A12688243014B1A607047000051
:1002C00030380240704700000CB5002001900090CB
:1002D0003448006840F480303249086000BF31483B
:1002E000006800F4003000900198401C01900098D4
:1002F00018B90198B0F5A04FF1D12A48006800F470
:10030000003010B10120009001E000200090009822
:10031000012846D123484030006840F080502149F0
:10032000403108602048006840F440401E490860A1
:100330001C48083000681B490831086008460068FE
:1003400040F4004008600846006840F4A05008608F
:100350001648091F0860081F006840F08070091FD8
:10036000086000BF0F48006800F000700028F9D056
:1003700040F205700E4908600A480830006820F015
:1003800003000849083108600846006840F0020090
:10039000086000BF03480830006800F00C0008281F
:1003A000F8D10CBD003802400070004019544007DD
:1003B000003C02407047000010B51548006840F44A
:1003C0007000134908601348006840F001001149AB
:1003D000086000200F49083108600E4800680E4987
:1003E00008400C4908600D48091D0860081F006896
:1003F00020F48020091F0860002006490C310860A5
:10040000FFF762FF4FF0006001498039086010BDBE
:1004100088ED00E000380240FFFFF6FE10300024B7
:1004200000BFFEE702E008C8121F08C1002AFAD187
:1004300070477047002001E001C1121F002AFBD164
:10044000704700E0401E0028FCD170471CB5012118
:100450001120FFF727FF0120009000208DF80400F5
:1004600002208DF8070069460648FFF7BEFE1020FF
:10047000009001208DF8070069460348FFF7B5FE9C
:100480001CBD0000000002400010024070B505468F
:100490000E46144631462846FFF7EFFEA04212D121
:1004A00040F6FF70FFF7CDFF31462846FFF7E5FE27
:1004B000A04208D100BF31462846FFF7DEFEA04229
:1004C000F9D0012070BD0020FCE700001CB501211F
:1004D0000846FFF7E7FE4020009000208DF8050059
:1004E00001208DF807008DF8040000208DF806002B
:1004F00069460548FFF779FE80200090694602486A
:10050000FFF773FE1CBD000000000240FFF79EFFD6
:10051000FFF7DCFF40210E48FFF7B8FE80210C48B2
:10052000FFF7B4FE13E0012211460948FFF7AEFFC2
:1005300018B140210648FFF7ABFE00221021054804
:10054000FFF7A4FF18B180210148FFF7A1FEEAE7F9
:100550000000024000100240680500080000002072
:0805600000040000340400084F
:040000050800018965
:00000001FF
