:020000040800F2
:10000000200400209D010008770400086F04000808
:100010007304000811020008870C000800000000AB
:1000200000000000000000000000000001090008BE
:10003000150200080000000001070008F10900088F
:10004000B7010008B7010008B7010008B7010008B0
:10005000B7010008B7010008B7010008B7010008A0
:10006000B7010008B7010008B7010008B701000890
:10007000B7010008B7010008B7010008B701000880
:10008000B7010008B7010008B7010008B701000870
:10009000B7010008B7010008B7010008B701000860
:1000A000B7010008B7010008B7010008B701000850
:1000B000B7010008B7010008B7010008B701000840
:1000C000B7010008B7010008B7010008B701000830
:1000D000B70100085D0A0008B7010008B701000871
:1000E000B7010008B7010008B7010008B701000810
:1000F000B7010008B7010008B7010008B701000800
:10010000B7010008B7010008B7010008B7010008EF
:10011000B7010008B7010008B7010008B7010008DF
:10012000B7010008B7010008B7010008B7010008CF
:10013000B7010008B7010008B7010008B7010008BF
:10014000B7010008B7010008B7010008B7010008AF
:10015000B7010008B7010008B7010008B70100089F
:10016000B7010008B7010008B7010008B70100088F
:10017000B7010008B7010008B7010008B70100087F
:10018000B7010008B7010008DFF80CD000F02EF826
:1001900000480047410F000820040020064880471F
:1001A00006480047FEE7FEE7FEE7FEE7FEE7FEE75C
:1001B000FEE7FEE7FEE7FEE7F50900088901000813
:1001C00030B50B46014600202022012409E021FA27
:1001D00002F59D4205D303FA02F5491B04FA02F524
:1001E0002844151EA2F10102F1DC30BD064C074D7A
:1001F00006E0E06840F0010394E8070098471034F7
:10020000AC42F6D3FFF7C4FFF41800081419000835
:1002100000BFFEE77047002107E04AF6FF7100BF0C
:100220000A1EA1F1010399B2FAD1021EA0F1010345
:1002300098B2F2D17047F0B50A460021002300249D
:1002400000BF3DE0012505FA01F3156805EA030446
:100250009C4234D105684F000326BE40B54305607B
:1002600015794E00B5400668354305601579012DB6
:1002700002D01579022D16D185684F000326BE40A5
:10028000B543856055794E00B54086683543856035
:10029000456801268E40B5434560456896798E4095
:1002A000B6B235434560C5684F000326BE40B5432E
:1002B000C560D5794E00B540C6683543C560491C58
:1002C0001029BFD3F0BD00001CB50121084600F085
:1002D00019FA0F20009002208DF8050000208DF8FB
:1002E000070001208DF8040000208DF80600694603
:1002F0004948FFF7A0FF0F21484800F0B6F8042155
:10030000454800F0B2F81420FFF785FF0421424869
:1003100000F0A9F81420FFF77EFF04213E4800F00A
:10032000A4F80021AE2000F0BBF90021084600F03F
:10033000B7F90021102000F0B3F90021402000F0AF
:10034000AFF90021812000F0ABF90021CF2000F0AF
:10035000A7F90021A12000F0A3F90021C82000F096
:100360009FF90021A62000F09BF90021A82000F0B1
:1003700097F900213F2000F093F90021D32000F0ED
:100380008FF90021084600F08BF90021D52000F0FC
:1003900087F90021802000F083F90021D92000F0A6
:1003A0007FF90021F12000F07BF90021DA2000F034
:1003B00077F90021122000F073F90021DB2000F012
:1003C0006FF90021402000F06BF90021202000F09F
:1003D00067F90021022000F063F900218D2000F070
:1003E0005FF90021142000F05BF90021A42000F047
:1003F00057F90021A62000F053F90021AF2000F0AA
:100400004FF90021AF2000F04BF900F07BF80021FC
:10041000084600F097F81CBD0000024000040240AE
:10042000F0B5002300244D07ED0E02FA05F3CE10BF
:1004300000F1200555F826504E07F70E0F26BE4056
:10044000B543CF1000F1200646F82750CE1000F13A
:10045000200555F8265045EA0304CE1000F120058A
:1004600045F82640F0BD418370470183704700BFC7
:10047000FEE700BFFEE7704770B5002100230F22A2
:10048000C4781CB3174C246804F4E064C4F5E06439
:10049000C4F30721C1F10404E3B20A4144789C404B
:1004A000E1B28478144021430C07210E0E4C0578EC
:1004B0006155047804F01F050124AC4005786D11E6
:1004C000AD0005F1E025C5F8004109E0047804F02D
:1004D0001F050124AC40054D0678761145F82640ED
:1004E00070BD00000CED00E000E400E080E100E001
:1004F00002490143024A1160704700000000FA05FA
:100500000CED00E070B5002419E004F1B001C8B2B0
:10051000002100F0C5F80021084600F0C1F80021D4
:10052000102000F0BDF8002505E00121002000F0BA
:10053000B7F8681CC5B2802DF7DB601CC4B2082C6C
:10054000E3DB70BD70B504460D4605F1B001C8B2DD
:10055000002100F0A5F8102141EA1410002100F05C
:100560009FF804F00F0141F00100002100F098F81D
:1005700070BD00002DE9F04107460E46904600256B
:100580000024A8F12000C5B27F2F02DD0027B01C97
:10059000C6B231463846FFF7D5FF002408E004EB29
:1005A00005110F4A505C012100F07AF8601CC4B2BA
:1005B000082CF4DB701CC1B23846FFF7C3FF0024DF
:1005C00009E004EB05110831054A505C012100F0F7
:1005D00067F8601CC4B2082CF3DBBDE8F0810000B2
:1005E000031300082DE9FF5F074691461D460E9E46
:1005F0004FF0000A002433E0281B401EC1B20A203D
:1006000000F025FDB9FBF0F00A21B0FBF1F201FB8F
:100610001208BAF1000F13D1681EA04210DDB8F124
:10062000000F0BD1B34606EBDB71491001FB0471DF
:10063000C8B220220199FFF79DFF0FE04FF0010A99
:10064000B34606EBDB71491001FB0471C8B208F137
:100650003001CAB20199FFF78DFF00BF601CC4B220
:10066000AC42C9DBBDE8FF9F2DE9F04104460F46CF
:10067000154600260EE0AA5D39462046FFF77AFFB0
:1006800004F10800C4B2782C02DD0024B81CC7B203
:10069000701CC6B2A85D0028EDD1BDE8F081000055
:1006A00070B504460E4626B108211448FFF7DDFE5A
:1006B00003E008211148FFF7D6FE002517E00121CD
:1006C0000E48FFF7D0FE04F0800020B102210B4855
:1006D000FFF7CBFE03E002210848FFF7C4FE01212B
:1006E0000648FFF7C2FE6006040E681CC5B2082D5E
:1006F000E5DB08210148FFF7B8FE70BD00000240AD
:100700007047000029B1064A12680243044B1A6080
:1007100004E0034A12688243014B1A6070470000EC
:100720003038024029B1064A12680243044B1A606D
:1007300004E0034A12688243014B1A6070470000CC
:100740003438024029B1064A12680243044B1A6049
:1007500004E0034A12688243014B1A6070470000AC
:1007600044380240F0B50021002200240225002672
:100770000223324F3F6807F00C0121B1042905D054
:10078000082937D105E02E4F076036E02D4F07606E
:1007900033E02A4F3F1F3F68C7F38056274F3F1F64
:1007A0003F6807F03F036EB1264FB7FBF3F7DFF862
:1007B0008CC0ACF1040CDCF800C0CCF3881C07FB47
:1007C0000CF40CE01E4FB7FBF3F7DFF870C0ACF190
:1007D000040CDCF800C0CCF3881C07FB0CF4174FAA
:1007E0003F1F3F68C7F301477F1C7D00B4FBF5F74F
:1007F000076002E0124F076000BF00BF0F4F3F6865
:1008000007F0F0010909104F7A5C0768D74047608C
:100810000A4F3F6807F4E051890A0B4F7A5C47683A
:10082000D7408760054F3F6807F46041490B064F8A
:100830007A5C4768D740C760F0BD000008380240C6
:100840000024F40040787D010000002030B1074909
:10085000096841F00401054A116005E0034909688F
:1008600021F00401014A11607047000000080650A1
:1008700001460020034A12680A400AB1012000E044
:1008800000207047040806500148006870470000C7
:100890000808065010B500BF0120FFF7E9FF002847
:1008A000FAD0FFF7F1FF10BD70B504460D46FFF713
:1008B000F1FF291B491CB0FBF1F201FB120020449F
:1008C00070BD10B5002401214020FFF72BFF01204F
:1008D000FFF7BCFF04E0601C84B2642000F0E2FA81
:1008E0000120FFF7C5FF18B942F210708442F2DB15
:1008F00042F21070844201DB012010BD0020FCE7B1
:10090000704700000CB5002001900090344800684A
:1009100040F480303249086000BF3148006800F47C
:10092000003000900198401C0190009818B901987F
:10093000B0F5A04FF1D12A48006800F4003010B1A2
:100940000120009001E0002000900098012846D18D
:1009500023484030006840F0805021494031086011
:100960002048006840F440401E4908601C48083098
:1009700000681B49083108600846006840F40040E0
:1009800008600846006840F4A05008601648091F37
:100990000860081F006840F08070091F086000BFF1
:1009A0000F48006800F000700028F9D040F2057090
:1009B0000E4908600A480830006820F00300084922
:1009C000083108600846006840F00200086000BF77
:1009D00003480830006800F00C000828F8D10CBD6E
:1009E000003802400070004008544007003C0240BC
:1009F0007047000010B51548006840F470001349B6
:100A000008601348006840F00100114908600020A8
:100A10000F49083108600E4800680E4908400C492B
:100A200008600D48091D0860081F006820F4802038
:100A3000091F0860002006490C310860FFF762FFBB
:100A40004FF0006001498039086010BD88ED00E07A
:100A500000380240FFFFF6FE1030002410B540F2CF
:100A60002551184800F04DF810B3164800F002F96F
:100A70001549164A1278885414480078401C1349C6
:100A8000087008460078401E0F49085CFF2810D106
:100A900008460078FE2808D10C4801780A4800F082
:100AA00010FA0020094908700AE000200749087080
:100AB00006E006480078062802D1002003490870A5
:100AC00010BD0000001001401000002016000020A2
:100AD00021B1828942F40052828104E082894DF67C
:100AE000FF731A408281704702460020B1F5007FF3
:100AF00000D100BF13880B400BB1012000E00020A3
:100B0000704770B50246002400230025002040F6FF
:100B10006A16B14200D100BFC1F3421501F01F03B4
:100B2000012606FA03F3012D02D19689334006E02F
:100B3000022D02D1168A334001E0968A33400C120E
:100B4000012606FA04F41688344013B10CB10120D2
:100B500000E0002070BDF0B503460024002600250B
:100B6000002040F66A17B94200D100BF1846C1F311
:100B7000421401F01F06012707FA06F5012C01D1E6
:100B80000C3004E0022C01D1103000E014301AB116
:100B900007682F43076002E00768AF430760F0BDB6
:100BA0002DE9FF4705460E460024A14600BFA0469A
:100BB000B08900B100BF2C8A24F44054F08804436B
:100BC0002C82AC8941F20C608443B088318908439F
:100BD000718908430443AC81AC8A24F44074B08921
:100BE0000443AC826846FFF7BDFD2048854202D031
:100BF0001F48854202D1DDF80C9001E0DDF8089035
:100C0000A88900F4004040B109EBC90000EB0910CD
:100C100031684900B0FBF1F707E009EBC90000EBD0
:100C2000091031688900B0FBF1F76420B7FBF0F0E0
:100C300004012009642101FB1078A88900F4004018
:100C400040B1322000EBC800B0FBF1F000F007002B
:100C5000044308E0322000EB08106421B0FBF1F0FF
:100C600000F00F0004432C81BDE8FF870010014015
:100C70000014014001468888C0F308007047C1F3A2
:100C800008028280704700BFFEE700000FB4054BEA
:100C900010B503A9044A029800F018F810BC5DF8DA
:100CA00014FB0000C50E00081800002002E008C870
:100CB000121F08C1002AFAD170477047002001E0D6
:100CC00001C1121F002AFBD1704700002DE9FF4F20
:100CD0008BB09A460F460546002606E025280BD025
:100CE00052460D9990476D1C761C28780028F5D146
:100CF0000FB03046BDE8F08F0024A04601226049C5
:100D000000E0044315F8013F203B02FA03F00842DB
:100D1000F7D128782E2817D115F8010F44F00404D4
:100D20002A280ED06FF02F022878A0F1300109296F
:100D30000AD808EB880102EB410100EB01086D1CA9
:100D4000F2E757F8048B6D1C287869283ED006DC42
:100D50000028CDD063280BD0642804D136E0732856
:100D600010D075284BD052460D999047761C85E0DF
:100D700017F8040B8DF8000000208DF80100E946FB
:100D8000012003E057F8049B4FF0FF3061074FF05C
:100D9000000401D40AE0641C44450DDA8442FADB05
:100DA00019F804100029F6D106E0641C8442FCDB2B
:100DB00019F804100029F8D1264404E019F8010BB1
:100DC00052460D999047641EF8D257E001CF4FF07C
:100DD0000A0B002802DA40422D2102E0210504D549
:100DE0002B218DF82410012103E0E10705D02021FB
:100DF000F7E70DF1200908910CE00021F9E701CF98
:100E00004FF00A0BF9E75946FFF7DAF901F1300222
:100E100009F8012D0028F6D1ADEB090000F1200BF7
:100E2000600701D44FF00108D84502DDA8EB0B00A4
:100E300000E000208046002406E009A85246005D3C
:100E40000D999047641C761C08988442F5DB04E0F9
:100E5000302052460D999047761CB8F10001A8F158
:100E60000108F5DC05E019F8010B52460D99904791
:100E7000761CBBF10001ABF1010BF4DC6D1C34E717
:100E800009280100002107E04AF6FF7100BF0A1E91
:100E9000A1F1010399B2FAD1021EA0F1010398B2A7
:100EA000F2D17047002106E02D2100BF0A1EA1F1FA
:100EB000010399B2FAD1021EA0F1010398B2F3D155
:100EC0007047704770B504460D46E1B20548FFF71C
:100ED000D6FE00BF80210348FFF706FE0028F9D0A8
:100EE000204670BD001001401CB501210846FFF7E7
:100EF00009FC02208DF8050001208DF80700022072
:100F00008DF8040000208DF806004FF4007000906A
:100F100069460A48FFF78FF94FF4806000906946F0
:100F20000648FFF788F9072209210448FFF778FAF5
:100F300007220A210148FFF773FA1CBD0000024096
:100F40008EB029A1D1E90023D1E90201CDE90A231C
:100F5000CDE90C01284BD3E90021D3E90203CDE907
:100F60000803CDE90621244B1033D3E90020D3E94F
:100F70000213CDE90413CDE90220FFF7B5FF00F01D
:100F800071F81EA0FFF782FEFFF79EF9FFF7BAFA8D
:100F900006AA00210846FFF767FB02AA04210020E9
:100FA000FFF762FB04E00AAA00210846FFF75CFB9A
:100FB000FFF787FC0028F6D115E064210020FFF739
:100FC00073FC0446224602A915A0FFF75FFE10201D
:100FD00003232246042100905A20FFF703FB4FF41D
:100FE0002F70FFF74FFFE8E754484520524E472047
:100FF0004552524F52210000BC10000874686973BA
:101000002069732073746D333266340A4920616D30
:1010100020524E472D434F44452D544558540A0005
:10102000257325640A00000008B54FF4C060FFF77F
:101030005FFA25208DF8000001208DF801008DF861
:1010400002008DF803006846FFF716FA08BD10B5D8
:101050000246012000E050430B1EA1F10104E1B261
:10106000F9D110BD1FB501210846FFF74BFB012147
:101070001020FFF767FB4FF4E13000900020ADF83F
:101080000400ADF80600ADF80800ADF80C000C2027
:10109000ADF80A0069460848FFF782FDFFF7C4FF74
:1010A000012240F225510448FFF755FD0121024875
:1010B000FFF70EFD1FBD0000001001405448452001
:1010C000524E4720544553540000000054484520D8
:1010D00052414E444F4D3A00000000000000000015
:1010E000000000002F000000000700070000147F30
:1010F000147F1400242A7F2A12006264081323003C
:10110000364955225000000503000000001C224112
:1011100000000041221C000014083E0814000808CA
:101120003E0808000000A060000008080808080049
:101130000060600000002010080402003E51494594
:101140003E0000427F40000042615149460021417B
:10115000454B31001814127F1000274545453900D2
:101160003C4A4949300001710905030036494949A3
:101170003600064949291E00003636000000005698
:101180003600000008142241000014141414140046
:101190000041221408000201510906003249595148
:1011A0003E007C1211127C007F49494936003E41C5
:1011B000414122007F4141221C007F4949494100B1
:1011C0007F09090901003E4149497A007F08080862
:1011D0007F0000417F4100002040413F01007F0827
:1011E000142241007F40404040007F020C027F00FB
:1011F0007F0408107F003E4141413E007F090909FC
:1012000006003E4151215E007F09192946004649EA
:101210004949310001017F0101003F4040403F004A
:101220001F2040201F003F4038403F006314081437
:101230006300070870080700615149454300007FBB
:1012400041410000552A552A55000041417F0000C8
:10125000040201020400404040404000000102043A
:1012600000002054545478007F48444438003844E7
:1012700044442000384444487F00385454541800F3
:10128000087E0901020018A4A4A47C007F080404BD
:10129000780000447D4000004080847D00007F1085
:1012A0002844000000417F4000007C0418047800BE
:1012B0007C0804047800384444443800FC24242486
:1012C000180018242418FC007C0804040800485462
:1012D00054542000043F444020003C4040207C0007
:1012E0001C2040201C003C4030403C00442810287A
:1012F00044001CA0A0A07C004464544C441414146A
:1013000014141400000000000000000000000000A1
:10131000000000000000F800000000000000333072
:1013200000000000100C06100C0600000000000079
:1013300000000040C07840C0784000043F04043FF3
:10134000040400007088FC08300000001820FF2111
:101350001E0000F008F000E018000000211C031E31
:10136000211E0000F00888700000001E21232419AF
:1013700027211010160E00000000000000000000E1
:10138000000000000000E018040200000000071840
:1013900020400000020418E0000000004020180770
:1013A000000000404080F0804040000202010F0138
:1013B000020200000000F0000000000101011F0116
:1013C000010100000000000000000080B07000007B
:1013D0000000000000000000000000000101010109
:1013E000010101000000000000000000303000009A
:1013F0000000000000000080601804006018060172
:1014000000000000E010080810E000000F1020208D
:10141000100F00001010F8000000000020203F20F6
:10142000200000007008080888700000302824227E
:101430002130000030088888483000001820202023
:10144000110E000000C02010F80000000704242442
:101450003F240000F808888808080000192120208F
:10146000110E0000E0108888180000000F112020E5
:10147000110E0000380808C83808000000003F00BE
:101480000000000070880808887000001C222121DC
:10149000221C0000E010080810E0000000312222A9
:1014A000110F00000000C0C000000000000030303C
:1014B00000000000000080000000000000806000CC
:1014C0000000000000804020100800000102040815
:1014D0001020004040404040404000040404040408
:1014E00004040000081020408000000020100804C0
:1014F000020100007048080808F0000000003036C3
:10150000010000C030C828E810E000071827242395
:10151000140B000000C038E0000000203C23020251
:1015200027382008F8888888700000203F20202075
:10153000110E00C0300808080838000718202020C5
:1015400010080008F808080810E000203F202020BC
:10155000100F0008F88888E8081000203F2020239A
:1015600020180008F88888E8081000203F200003B1
:10157000000000C0300808083800000718202022AA
:101580001E020008F808000008F808203F210101A9
:10159000213F20000808F8080800000020203F2014
:1015A00020000000000808F8080800C08080807F44
:1015B00000000008F888C028180800203F200126F5
:1015C00038200008F8080000000000203F202020FC
:1015D00020300008F8F800F8F80800203F003F002D
:1015E0003F200008F830C00008F808203F2000071E
:1015F000183F00E01008080810E0000F102020201D
:10160000100F0008F808080808F000203F21010129
:10161000010000E01008080810E0000F182424382A
:10162000504F0008F8888888887000203F20000309
:101630000C3020007088080808380000382021216C
:10164000221C00180808F8080818000000203F2095
:1016500000000008F808000008F808001F202020FB
:10166000201F000878880000C83808000007380EDE
:10167000010000F80800F80008F800033C07000724
:101680003C0300081868808068180820302C030389
:101690002C30200838C800C83808000000203F203F
:1016A00000000010080808C838080020382621204B
:1016B000201800000000FE020202000000007F402F
:1016C000404000000C30C000000000000000010697
:1016D00038C00000020202FE000000004040407FCF
:1016E00000000000000402020204000000000000EC
:1016F000000000000000000000000080808080806A
:101700008080800002020400000000000000000051
:101710000000000000808080800000001924222248
:10172000223F2008F8008080000000003F112020A8
:10173000110E000000008080800000000E112020AB
:10174000201100000000808088F800000E11202089
:10175000103F200000808080800000001F22222295
:10176000221300008080F0888888180020203F2005
:101770002000000000808080808000006B949494A2
:1017800093600008F8008080800000203F21000066
:10179000203F2000809898000000000020203F207B
:1017A000200000000000809898000000C080808029
:1017B0007F000008F8000080808000203F24022D78
:1017C000302000000808F8000000000020203F2022
:1017D0002000008080808080808000203F20003FAB
:1017E00020003F8080008080800000203F2100009A
:1017F000203F200000808080800000001F202020EB
:10180000201F00808000808000000080FFA1202039
:10181000110E000000008080808000000E1120204A
:10182000A0FF80808080008080800020203F2120D9
:101830000001000000808080808000003324242488
:10184000241900008080E0808000000000001F203C
:101850002000008080000000808000001F202020E9
:10186000103F20808080000080808000010E3008C2
:1018700006010080800080008080800F300C030C07
:10188000300F0000808000808080000020312E0E0C
:10189000312000808080000080808080818E7018E0
:1018A00006010000808080808080000021302C2292
:1018B00021300000000000807C02020000000000D7
:1018C0003F404000000000FF00000000000000FF5B
:1018D0000000000002027C800000000040403F0049
:1018E00000000000060101020204040000000000E4
:1018F0000000000014190008000000201C00000077
:10190000AC0C0008301900081C0000200404000082
:10191000BC0C0008000000000102030401020304E3
:101920000607080900000000000000000000000099
:040000050800018965
:00000001FF
