:020000040800F2
:10000000000400209D010008D1020008C902000878
:10001000CD020008E5010008A50600080000000068
:1000200000000000000000000000000015030008B0
:10003000E901000800000000D302000805040008E0
:10004000B7010008B7010008B7010008B7010008B0
:10005000B7010008B7010008B7010008B7010008A0
:10006000B7010008B7010008B7010008B701000890
:10007000B7010008B7010008B7010008B701000880
:10008000B7010008B7010008B7010008B701000870
:10009000B7010008B7010008B7010008B701000860
:1000A000B7010008B7010008B7010008B701000850
:1000B00011050008B7010008B7010008B7010008E2
:1000C000B7010008B7010008B7010008B701000830
:1000D000B7010008B7010008B7010008B701000820
:1000E000B7010008B7010008B7010008B701000810
:1000F000B7010008B7010008B7010008B701000800
:10010000B7010008B7010008B7010008B7010008EF
:10011000B7010008B7010008B7010008B7010008DF
:10012000B7010008B7010008B7010008B7010008CF
:10013000B7010008B7010008B7010008B7010008BF
:10014000B7010008B7010008B7010008B7010008AF
:10015000B7010008B7010008B7010008B70100089F
:10016000B7010008B7010008B7010008B70100088F
:10017000B7010008B7010008B7010008B70100087F
:10018000B7010008B7010008DFF80CD000F018F83C
:1001900000480047D10600080004002006488047B8
:1001A00006480047FEE7FEE7FEE7FEE7FEE7FEE75C
:1001B000FEE7FEE7FEE7FEE7090400088901000804
:1001C000064C074D06E0E06840F0010394E80700A4
:1001D00098471034AC42F6D3FFF7DAFF1007000857
:1001E0002007000800BFFEE77047F0B50A4600216F
:1001F0000023002400BF3DE0012505FA01F3156846
:1002000005EA03049C4234D105684F000326BE4032
:10021000B543056015794E00B54006683543056065
:100220001579012D02D01579022D16D185684F0060
:100230000326BE40B543856055794E00B5408668BB
:1002400035438560456801268E40B5434560456865
:1002500096798E40B6B235434560C5684F00032697
:10026000BE40B543C560D5794E00B540C66835433C
:10027000C560491C1029BFD3F0BDF0B50023002490
:100280004D07ED0E02FA05F3CE1000F1200555F8EA
:1002900026504E07F70E0F26BE40B543CF1000F193
:1002A000200646F82750CE1000F1200555F82650BC
:1002B00045EA0304CE1000F1200545F82640F0BDC4
:1002C00042694A404261704700BFFEE700BFFEE757
:1002D0007047704729B1064A12680243044B1A60FE
:1002E00004E0034A12688243014B1A607047000021
:1002F0003038024029B1064A12680243044B1A60A2
:1003000004E0034A12688243014B1A607047000000
:1003100040380240704700000CB50020019000906A
:100320003448006840F480303249086000BF3148EA
:10033000006800F4003000900198401C0190009883
:1003400018B90198B0F5A04FF1D12A48006800F41F
:10035000003010B10120009001E0002000900098D2
:10036000012846D123484030006840F080502149A0
:10037000403108602048006840F440401E49086051
:100380001C48083000681B490831086008460068AE
:1003900040F4004008600846006840F4A05008603F
:1003A0001648091F0860081F006840F08070091F88
:1003B000086000BF0F48006800F000700028F9D006
:1003C00040F205700E4908600A480830006820F0C5
:1003D00003000849083108600846006840F0020040
:1003E000086000BF03480830006800F00C000828CF
:1003F000F8D10CBD0038024000700040085440079E
:10040000003C02407047000010B51548006840F4F9
:100410007000134908601348006840F0010011495A
:10042000086000200F49083108600E4800680E4936
:1004300008400C4908600D48091D0860081F006845
:1004400020F48020091F0860002006490C31086054
:10045000FFF762FF4FF0006001498039086010BD6E
:1004600088ED00E000380240FFFFF6FE1030002467
:1004700030B58BB004460D4601210802FFF73AFF64
:1004800001210846FFF726FF092207211E48FFF732
:10049000F4FE8020099002208DF8280003208DF8BA
:1004A000290000208DF82A0001208DF82B0009A9D1
:1004B0001548FFF79AFEA8B2ADF818000020ADF875
:1004C0001A000794ADF8200006A9104800F0A8F81B
:1004D0006020ADF804000120ADF806000220ADF860
:1004E000100001A9094800F051F80821074800F060
:1004F0008BF80121054800F01DF80121034800F0A8
:1005000028F80BB030BD0000000002400020004081
:1005100010B50121880700F028F838B101218807BB
:1005200000F014F840210248FFF7CAFE10BD000099
:100530000000024021B1028842F08002028004E003
:1005400002884FF67F731A4002807047CA430282C6
:10055000704721B1028842F00102028004E0028863
:100560004FF6FE731A400280704730B502460020F5
:1005700000230024158A05EA0103958905EA010490
:1005800013B10CB1012000E0002030BD70B5002493
:1005900000220023058C4FF6FE7635400584028C40
:1005A0008388048B4FF68F752C40B51E2C400D8828
:1005B0002C43751E2A408D892A434D882A43104DAD
:1005C000A84202D00F4DA84213D14FF6F7752A402A
:1005D000CD892A434FF6FB752A408D882A434FF672
:1005E000FF652B404FF6FF552B400D8A2B434D8A5C
:1005F0002B43838004838D684563028470BD0000B3
:1006000000000140000401400A460021018B4FF622
:10061000F77319401143018370474163704700002D
:1006200000220288184B98420ED0184B98420BD0EB
:10063000B0F1804F08D0164B984205D0154B984228
:1006400002D0154B984204D14FF68F731A404B8855
:100650001A43124B984207D0114B984204D04FF6E0
:10066000FF431A400B891A4302804B68C3620B8810
:100670000385054B984202D0044B984201D18B7AF6
:10068000038601238382704700000140000401407B
:100690000004004000080040000C00400010004032
:1006A0000014004000BFFEE702E008C8121F08C1A6
:1006B000002AFAD170477047002001E001C1121FE3
:1006C000002AFBD1704700E0401E0028FCD1704793
:1006D00000240125532140F2F310FFF7C9FE13E077
:1006E0004FF6FF70FFF7EFFF15B1601C84B201E019
:1006F000601E84B2B4F5967F00DB002504B90125A5
:1007000021460248FFF789FFEAE700000020004089
:10071000200700080000002000040000B8060008C0
:040000050800018965
:00000001FF
