:020000040800F2
:10000000000400209D0100089902000891020008E8
:1000100095020008E501000837060008000000000E
:100020000000000000000000000000006D03000858
:10003000E901000800000000290300085D04000831
:10004000B7010008B7010008B7010008B7010008B0
:10005000B7010008B7010008B7010008B7010008A0
:10006000B7010008B7010008B7010008B701000890
:10007000B7010008B7010008B7010008B701000880
:10008000B7010008B7010008B7010008B701000870
:10009000B7010008B7010008B7010008B701000860
:1000A000B7010008B7010008B7010008B701000850
:1000B000B7010008B7010008B7010008B701000840
:1000C000B7010008B7010008B7010008B701000830
:1000D000B7010008B7010008B7010008B701000820
:1000E000B7010008B7010008B7010008B701000810
:1000F000B7010008B7010008B7010008B701000800
:10010000B7010008B7010008B7010008B7010008EF
:10011000B7010008B7010008C9040008B7010008CA
:10012000B7010008B7010008B7010008B7010008CF
:10013000B7010008B7010008B7010008B7010008BF
:10014000B7010008B7010008B7010008B7010008AF
:10015000B7010008B7010008B7010008B70100089F
:10016000B7010008B7010008B7010008B70100088F
:10017000B7010008B7010008B7010008B70100087F
:10018000B7010008B7010008DFF80CD000F018F83C
:10019000004800478D0600080004002006488047FC
:1001A00006480047FEE7FEE7FEE7FEE7FEE7FEE75C
:1001B000FEE7FEE7FEE7FEE76104000889010008AC
:1001C000064C074D06E0E06840F0010394E80700A4
:1001D00098471034AC42F6D3FFF7DAFFB4060008B4
:1001E000C406000800BFFEE77047F0B50A460021CC
:1001F0000023002400BF3DE0012505FA01F3156846
:1002000005EA03049C4234D105684F000326BE4032
:10021000B543056015794E00B54006683543056065
:100220001579012D02D01579022D16D185684F0060
:100230000326BE40B543856055794E00B5408668BB
:1002400035438560456801268E40B5434560456865
:1002500096798E40B6B235434560C5684F00032697
:10026000BE40B543C560D5794E00B540C66835433C
:10027000C560491C1029BFD3F0BD41837047426956
:100280004A40426170470AB1018300E041837047F0
:1002900000BFFEE700BFFEE77047000070B5002119
:1002A00000230F22C4781CB3174C246804F4E064C4
:1002B000C4F5E064C4F30721C1F10404E3B20A41C8
:1002C00044789C40E1B28478144021430C07210E0D
:1002D0000E4C05786155047804F01F050124AC40EC
:1002E00005786D11AD0005F1E025C5F8004109E084
:1002F000047804F01F050124AC40054D0678761102
:1003000045F8264070BD00000CED00E000E400E080
:1003100080E100E002490143024A11607047000099
:100320000000FA050CED00E07047000029B1064A14
:1003300012680243044B1A6004E0034A12688243C5
:10034000014B1A60704700003038024029B1064A5C
:1003500012680243044B1A6004E0034A12688243A5
:10036000014B1A607047000040380240704700009F
:100370000CB50020019000903448006840F48030B3
:100380003249086000BF3148006800F40030009036
:100390000198401C0190009818B90198B0F5A04F41
:1003A000F1D12A48006800F4003010B1012000901B
:1003B00001E0002000900098012846D123484030F9
:1003C000006840F0805021494031086020480068B2
:1003D00040F440401E4908601C48083000681B4932
:1003E000083108600846006840F40040086008468C
:1003F000006840F4A05008601648091F0860081FF4
:10040000006840F08070091F086000BF0F48006856
:1004100000F000700028F9D040F205700E49086025
:100420000A480830006820F00300084908310860D5
:100430000846006840F00200086000BF034808302A
:10044000006800F00C000828F8D10CBD003802400C
:100450000070004008544007003C02407047000014
:1004600010B51548006840F470001349086013483F
:10047000006840F001001149086000200F49083170
:1004800008600E4800680E4908400C4908600D4895
:10049000091D0860081F006820F48020091F0860FB
:1004A000002006490C310860FFF762FF4FF0006042
:1004B00001498039086010BD88ED00E00038024035
:1004C000FFFFF6FE1030002410B50121064800F0B1
:1004D00021F838B140210548FFF7D1FE012102483B
:1004E00000F009F810BD00000010004000000240BC
:1004F000CA4302827047CA430282704721B1028810
:1005000042F00102028004E002884FF6FE731A40B6
:100510000280704730B50246002000230024158A6F
:1005200005EA0103958905EA010413B10CB1012024
:1005300000E0002030BD1AB183890B43838102E0C3
:1005400083898B43838170470EB501211020FFF70B
:10055000FDFE41F28730019042F2CF00ADF800007D
:100560006946084800F010F801210648FFF7C0FF6F
:10057000012211460348FFF7DEFF01210148FFF782
:10058000BDFF0EBD0010004000220288184B9842AB
:100590000ED0184B98420BD0B0F1804F08D0164BBC
:1005A000984205D0154B984202D0154B984204D181
:1005B0004FF68F731A404B881A43124B984207D05C
:1005C000114B984204D04FF6FF431A400B891A434F
:1005D00002804B68C3620B880385054B984202D0AA
:1005E000044B984201D18B7A0386012383827047A2
:1005F00000000140000401400004004000080040E9
:10060000000C0040001000400014004008B54FF4FA
:10061000E060FFF77FFE36208DF8000000208DF8A7
:10062000010003208DF8020001208DF803006846C8
:10063000FFF734FE08BD00BFFEE702E008C8121F46
:1006400008C1002AFAD170477047002001E001C1BB
:10065000121F002AFBD170471CB501210846FFF785
:1006600065FE4020009000208DF805008DF8070001
:1006700001208DF8040000208DF80600694602482C
:10068000FFF7B3FD1CBD000000000240FFF7E4FFD0
:1006900040210748FFF7F1FD012240210448FFF700
:1006A000F2FDFFF751FFFFF7B1FF00BFFEE70000CB
:1006B00000000240C4060008000000200004000002
:0406C0004A060008DE
:040000050800018965
:00000001FF
