:020000040800F2
:10000000200400209D010008C905000837050008EC
:100010003B05000811020008E7130008000000007B
:100020000000000000000000000000006110000857
:100030001502000800000000DD070008511100084B
:10004000B7010008B7010008B7010008FD0E00085D
:10005000B7010008B7010008B7010008B7010008A0
:10006000B7010008B7010008B7010008B701000890
:10007000B7010008B7010008B7010008B701000880
:10008000B7010008B7010008B7010008B701000870
:10009000B7010008B7010008B7010008B701000860
:1000A000B7010008B7010008B7010008B701000850
:1000B000B7010008B7010008B7010008B701000840
:1000C000B7010008B7010008B7010008B701000830
:1000D000B7010008BD110008B7010008B70100080A
:1000E000B7010008DD090008B7010008B7010008E2
:1000F000B7010008B7010008B7010008B701000800
:10010000B7010008B7010008B7010008B7010008EF
:10011000B7010008B7010008B7010008B7010008DF
:10012000B7010008B7010008B7010008B7010008CF
:10013000B7010008B7010008B7010008B7010008BF
:10014000B7010008B7010008B7010008B7010008AF
:10015000B7010008B7010008B7010008B70100089F
:10016000B7010008B7010008B7010008B70100088F
:10017000B7010008B7010008B7010008B70100087F
:10018000B7010008B7010008DFF80CD000F02EF826
:1001900000480047751800082004002006488047E2
:1001A00006480047FEE7FEE7FEE7FEE7FEE7FEE75C
:1001B000FEE7FEE7FEE7FEE75511000889010008AB
:1001C00030B50B46014600202022012409E021FA27
:1001D00002F59D4205D303FA02F5491B04FA02F524
:1001E0002844151EA2F10102F1DC30BD064C074D7A
:1001F00006E0E06840F0010394E8070098471034F7
:10020000AC42F6D3FFF7C4FF3022000850220008AA
:1002100000BFFEE77047002107E04AF6FF7100BF0C
:100220000A1EA1F1010399B2FAD1021EA0F1010345
:1002300098B2F2D17047002107E04AF6FF7100BF83
:100240000A1EA1F1010399B2FAD1021EA0F1010325
:1002500098B2F2D170470000014908607047000071
:10026000143C0140002123498279002A3AD00A46F1
:10027000126803689A430B461A600A1D12680368E5
:100280009A430B1D1A60027911440A6803681A43E5
:100290000A60184A0832126803689A43154B0833FB
:1002A0001A601A1D126803689A43124B0C331A60C5
:1002B0004279102A0ED11A1F126803681A430D4B97
:1002C00008331A601A1D126803681A43094B0C336D
:1002D0001A600DE00749427911440A6803681A431D
:1002E0000A6005E0027911440A6803689A430A60CB
:1002F00070470000003C0140F0B50A460021002391
:10030000002400BF3DE0012505FA01F3156805EA68
:1003100003049C4234D105684F000326BE40B54318
:10032000056015794E00B5400668354305601579BE
:10033000012D02D01579022D16D185684F000326B4
:10034000BE40B543856055794E00B540866835435B
:100350008560456801268E40B543456045689679BD
:100360008E40B6B235434560C5684F000326BE4097
:10037000B543C560D5794E00B540C6683543C56004
:10038000491C1029BFD3F0BD1CB50121084600F05F
:1003900027FA0F20009002208DF8050000208DF82C
:1003A000070001208DF8040000208DF80600694642
:1003B0004948FFF7A1FF0F21484800F0B6F8042193
:1003C000454800F0B2F81420FFF735FF04214248F9
:1003D00000F0A9F81420FFF72EFF04213E4800F09A
:1003E000A4F80021AE2000F0C3F90021084600F077
:1003F000BFF90021102000F0BBF90021402000F0DF
:10040000B7F90021812000F0B3F90021CF2000F0DE
:10041000AFF90021A12000F0ABF90021C82000F0C5
:10042000A7F90021A62000F0A3F90021A82000F0E0
:100430009FF900213F2000F09BF90021D32000F01C
:1004400097F90021084600F093F90021D52000F02B
:100450008FF90021802000F08BF90021D92000F0D5
:1004600087F90021F12000F083F90021DA2000F063
:100470007FF90021122000F07BF90021DB2000F041
:1004800077F90021402000F073F90021202000F0CE
:100490006FF90021022000F06BF900218D2000F09F
:1004A00067F90021142000F063F90021A42000F076
:1004B0005FF90021A62000F05BF90021AF2000F0D9
:1004C00057F90021AF2000F053F900F0C5F80021E2
:1004D000084600F0E1F81CBD0000024000040240A4
:1004E000F0B5002300244D07ED0E02FA05F3CE10FF
:1004F00000F1200555F826504E07F70E0F26BE4096
:10050000B543CF1000F1200646F82750CE1000F179
:10051000200555F8265045EA0304CE1000F12005C9
:1005200045F82640F0BD418370470183704742691A
:100530004A404261704700BFFEE700BFFEE73EB59C
:1005400041F6FF740121080700F05AF9012000F07C
:100550003FF9002000F08AFB45F25001884231D07B
:10056000012000F001FA04E0601C84B20A2001F0CE
:1005700017F9412000F0D8F90028F5D00CB9012076
:100580003EBD4FF4807000F00BFA012000F002FA3B
:100590007F200190FF20029000200090684600F02C
:1005A00033FB00231A461F210B2000F05BFC0123C4
:1005B0000C220421152000F043FC45F250010020DC
:1005C00000F040FD0020DBE77047000070B500211F
:1005D00000230F22C4781CB3174C246804F4E06491
:1005E000C4F5E064C4F30721C1F10404E3B20A4195
:1005F00044789C40E1B28478144021430C07210EDA
:100600000E4C05786155047804F01F050124AC40B8
:1006100005786D11AD0005F1E025C5F8004109E050
:10062000047804F01F050124AC40054D06787611CE
:1006300045F8264070BD00000CED00E000E400E04D
:1006400080E100E002490143024A11607047000066
:100650000000FA050CED00E070B5002419E004F18B
:10066000B001C8B2002100F083F80021084600F074
:100670007FF80021102000F07BF8002505E0012123
:10068000002000F075F8681CC5B2802DF7DB601CF7
:10069000C4B2082CE3DB70BD70B504460D4605F10D
:1006A000B001C8B2002100F063F8102141EA141033
:1006B000002100F05DF804F00F0141F0010000217D
:1006C00000F056F870BD00002DE9F04107460E46D7
:1006D000904600250024A8F12000C5B27F2F02DD3E
:1006E0000027B01CC6B231463846FFF7D5FF0024BC
:1006F00008E004EB05110F4A505C012100F038F8C6
:10070000601CC4B2082CF4DB701CC1B23846FFF781
:10071000C3FF002409E004EB05110831054A505CD1
:10072000012100F025F8601CC4B2082CF3DBBDE801
:10073000F08100003F1C00082DE9F04104460F46FF
:10074000154600260EE0AA5D39462046FFF7BCFF9D
:1007500004F10800C4B2782C02DD0024B81CC7B232
:10076000701CC6B2A85D0028EDD1BDE8F081000084
:1007700070B504460E4626B108211448FFF7D5FE91
:1007800003E008211148FFF7CEFE002517E0012104
:100790000E48FFF7C8FE04F0800020B102210B488C
:1007A000FFF7C3FE03E002210848FFF7BCFE01216A
:1007B0000648FFF7BAFE6006040E681CC5B2082D95
:1007C000E5DB08210148FFF7B0FE70BD00000240E4
:1007D000014908627047000000000E4270470000A7
:1007E00029B1064A12680243044B1A6004E0034A26
:1007F00012688243014B1A60704700003038024093
:1008000029B1064A12680243044B1A6004E0034A05
:1008100012688243014B1A60704700004038024062
:1008200029B1064A12680243044B1A6004E0034AE5
:1008300012688243014B1A6070470000443802403E
:10084000F0B5002100220024022500260223324FA9
:100850003F6807F00C0121B1042905D0082937D1E0
:1008600005E02E4F076036E02D4F076033E02A4F3A
:100870003F1F3F68C7F38056274F3F1F3F6807F071
:100880003F036EB1264FB7FBF3F7DFF88CC0ACF136
:10089000040CDCF800C0CCF3881C07FB0CF40CE063
:1008A0001E4FB7FBF3F7DFF870C0ACF1040CDCF8B7
:1008B00000C0CCF3881C07FB0CF4174F3F1F3F68A8
:1008C000C7F301477F1C7D00B4FBF5F7076002E02A
:1008D000124F076000BF00BF0F4F3F6807F0F001E5
:1008E0000909104F7A5C0768D74047600A4F3F6894
:1008F00007F4E051890A0B4F7A5C4768D74087605C
:10090000054F3F6807F46041490B064F7A5C476822
:10091000D740C760F0BD0000083802400024F40052
:1009200040787D010000002010B501460022002320
:1009300000204A11012A02D10A4C236808E0022A49
:1009400003D1084C7034236802E0064C74342368E9
:1009500001F01F02012494401C400CB1012000E072
:10096000002010BD003802400021094A11701170AA
:10097000012802D0042808D103E00121044A1170A3
:1009800004E00521024A117000E000BF00BF70477B
:100990007038024001490860704700003C0E474231
:1009A000002100F44072B2F5407F08D1094A116875
:1009B00021F4F811084A02401143064A1160054A21
:1009C00068321268C0F30B031A43024B68331A6093
:1009D0007047000008380240FFFCFF0F10B54FF4CD
:1009E000807000F0A3F8012805D1000200F028F87B
:1009F00003A000F0FBFC4FF40030FFF72DFC10BD0E
:100A0000414C41524D2041210D0A0000014600BFDA
:100A1000080900EB8000420001F00F001044C0B252
:100A200070470146002204E0501CC2B2A1F10A0046
:100A3000C1B20A29F8DA100741EA106070470000D5
:100A400081B241F08001044A126802F0800262EA39
:100A50000101014A116070470C2800400021010982
:100A60008AB242F08002044B1B6803F0800363EA01
:100A70000202014B1A6070470C28004008B50022A2
:100A8000009200200021104A126802F04002CAB908
:100A9000421E0D4B1A6000BF0B4A126802F0400163
:100AA000009A521C0092009AB2F5803F01D00029B2
:100AB000F2D0054A126802F040020AB1012002E0B9
:100AC000002000E0012008BD0C2800400348006819
:100AD00020F0800001490860704700000C280040A9
:100AE00070B506460C4600250E4800680E4900EA1F
:100AF0000105280CE070C5F30420607005F03F008C
:100B0000A070C5F3423020705EB9E078FFF77EFF39
:100B1000E0706078FFF77AFF6070A078FFF776FFEB
:100B2000A07070BD042800403FFFFF0010B50146D3
:100B300000200022054B1B68054C03EA040202EA70
:100B400001030BB1012000E0002010BD0C28004083
:100B50007F7F010070B506460C4600250F480068EF
:100B60000F4900EA0105C5F305402070C5F30620D2
:100B7000607005F07F00A07005F48000000CE0704C
:100B80005EB92078FFF742FF20706078FFF73EFFE4
:100B90006070A078FFF73AFFA07070BD0028004099
:100BA0007F7F7F00CA22174B1A6053221A6091B1CF
:100BB000144A1C3A126820F004031A43114B1C3BE0
:100BC0001A60104A1C32126800F004031A430D4BDD
:100BD0001C331A6011E00B4A1C3A126820F004031F
:100BE0009A43084B1C3B1A60064A1C32126800F0FC
:100BF00004039A43034B1C331A60FF22014B1A6013
:100C0000704700002428004030B504460025CA2063
:100C10001549086053200860FFF730FF00B91DE058
:100C200011481C38006820F040000F491C3908604A
:100C300008460068216808430B491C3908600A49C6
:100C40001439A068086008460068A18840EA01409D
:100C5000054914390860FFF739FF0125FF200249D3
:100C60000860284630BD00002428004008B5014631
:100C70000020009004480090009800EB8100009054
:100C80000098006808BD0000502800402DE9F041A0
:100C900005460C46002600274DB9607800F010008C
:100CA000102804D1607820F010000A30607005B977
:100CB00008E06078FFF7AAFE0646A078FFF7A6FED8
:100CC000064600BF55B1E0780004617840EA012093
:100CD000A1780843217840EA413611E0E078FFF737
:100CE000A0FE4FEA00486078FFF79BFE48EA002824
:100CF000A078FFF796FE48EA0008207848EA4036D8
:100D0000CA201249086053200860FFF7B7FE08B9EF
:100D1000002714E00E4830400C4920390860FFF7E6
:100D2000D5FE0A481C38006800F0200030B900F0F9
:100D300005F908B9002702E0012700E00127FF209C
:100D4000024908603846BDE8F081000024280040D0
:100D50003FFFFF002DE9F04105460C460026002725
:100D60004DB92E48006800F0400000B102E00020BC
:100D7000E07000BF0DE02948006800F0400020B19D
:100D80002078FFF743FE064602E00020E07000BF37
:100D900000BF55B120780004617840EA0120A178B5
:100DA0000843E17840EA014611E02078FFF739FE78
:100DB0004FEA00486078FFF734FE48EA0028A07840
:100DC000FFF72FFE48EA0008E07848EA0046CA200C
:100DD00012491C31086053200860FFF74FFE08B924
:100DE000002713E00E4830400C4908390860FFF72F
:100DF0006DFE0A48006800F0200030B900F09EF84F
:100E000008B9002702E0012700E00127FF2003497D
:100E10001C3108603846BDE8F08100000828004019
:100E20007F7F7F00CA21054A116053211160034969
:100E300010390860FF21116070470000242800402D
:100E4000F8B504460D4617461E468DF802708DF81B
:100E500001508DF800608DF8034069460020FFF7CF
:100E600015FFF8BDF8B504460D4617461E468DF829
:100E700000408DF801508DF802708DF803606946CE
:100E80000020FFF767FFF8BD3EB505460C46002081
:100E900000F09CF8284600F081F82046FFF7C2FFDA
:100EA0004FF48040FFF7DAFD4FF48000FFF7D4F9EC
:100EB00001218803FFF776FE012000F087F84FF448
:100EC0008000019000208DF8080008208DF80900AE
:100ED00001208DF80A0001A8FFF7C4F903208DF85E
:100EE000000002208DF801008DF8020001208DF82D
:100EF00003006846FFF76AFB3EBD000010B54FF4E3
:100F00008060FFF713FE012809D18002FFF798FDEA
:100F100005A000F06BFA40210748FFF708FB4FF4EB
:100F20008000FFF799F910BD6920616D20776B751E
:100F300070210D0A000000000000024008B50022E8
:100F4000009200200021CA22134B1A6053221A601B
:100F5000114A183A126822F0A0020F4B183B1A608F
:100F600000BF0D4A183A126802F02001009A521C84
:100F70000092009AB2F5003F01D00029F1D0064A54
:100F8000183A126802F020020AB1012000E00020A5
:100F9000FF22014B1A6008BD24280040CA210A4ADA
:100FA00011605321116008491C39096821F00701BB
:100FB000054A1C3A11601146096801431160FF217E
:100FC000014A1160704700002428004018B501460E
:100FD0000023009300220020CA23194C23605323CE
:100FE000236049B1164B1C3B1B6843F48063144CCF
:100FF0001C3C236001201FE0114B1C3B1B6823F4A9
:1010000080630F4C1C3C236000BF0D4B183B1B68DA
:1010100003F00402009B5B1C0093009BB3F5803F30
:1010200001D0002AF1D0064B183B1B6803F00403E3
:101030000BB9002000E00120FF23014C236018BD04
:101040002428004008B500220092044A0092009A29
:1010500002EB80020092009A116008BD5028004007
:10106000704700000CB500200190009034480068E3
:1010700040F480303249086000BF3148006800F415
:10108000003000900198401C0190009818B9019818
:10109000B0F5A04FF1D12A48006800F4003010B13B
:1010A0000120009001E0002000900098012846D126
:1010B00023484030006840F08050214940310860AA
:1010C0002048006840F440401E4908601C48083031
:1010D00000681B49083108600846006840F4004079
:1010E00008600846006840F4A05008601648091FD0
:1010F0000860081F006840F08070091F086000BF8A
:101100000F48006800F000700028F9D040F2057028
:101110000E4908600A480830006820F003000849BA
:10112000083108600846006840F00200086000BF0F
:1011300003480830006800F00C000828F8D10CBD06
:10114000003802400070004008544007003C024054
:101150007047000010B51548006840F4700013494E
:1011600008601348006840F0010011490860002041
:101170000F49083108600E4800680E4908400C49C4
:1011800008600D48091D0860081F006820F48020D1
:10119000091F0860002006490C310860FFF762FF54
:1011A0004FF0006001498039086010BD88ED00E013
:1011B00000380240FFFFF6FE1030002410B540F268
:1011C0002551184800F04DF810B3164800F002F908
:1011D0001549164A1278885414480078401C13495F
:1011E000087008460078401E0F49085CFF2810D19F
:1011F00008460078FE2808D10C4801780A4800F01B
:10120000DFFA0020094908700AE000200749087049
:1012100006E006480078062802D10020034908703D
:1012200010BD00000010014010000020160000203A
:1012300021B1828942F40052828104E082894DF614
:10124000FF731A408281704702460020B1F5007F8B
:1012500000D100BF13880B400BB1012000E000203B
:10126000704770B50246002400230025002040F698
:101270006A16B14200D100BFC1F3421501F01F034D
:10128000012606FA03F3012D02D19689334006E0C8
:10129000022D02D1168A334001E0968A33400C12A7
:1012A000012606FA04F41688344013B10CB101206B
:1012B00000E0002070BDF0B50346002400260025A4
:1012C000002040F66A17B94200D100BF1846C1F3AA
:1012D000421401F01F06012707FA06F5012C01D17F
:1012E0000C3004E0022C01D1103000E014301AB1AF
:1012F00007682F43076002E00768AF430760F0BD4F
:101300002DE9FF4705460E460024A14600BFA04632
:10131000B08900B100BF2C8A24F44054F088044303
:101320002C82AC8941F20C608443B0883189084337
:10133000718908430443AC81AC8A24F44074B089B9
:101340000443AC826846FFF77BFA2048854202D00E
:101350001F48854202D1DDF80C9001E0DDF80890CD
:10136000A88900F4004040B109EBC90000EB091066
:1013700031684900B0FBF1F707E009EBC90000EB69
:10138000091031688900B0FBF1F76420B7FBF0F079
:1013900004012009642101FB1078A88900F40040B1
:1013A00040B1322000EBC800B0FBF1F000F00700C4
:1013B000044308E0322000EB08106421B0FBF1F098
:1013C00000F00F0004432C81BDE8FF8700100140AE
:1013D0000014014001468888C0F308007047C1F33B
:1013E00008028280704700BFFEE700000FB4054B83
:1013F00010B503A9044A029800F02CF810BC5DF85F
:1014000014FB0000C5170008180000200FB4084B9B
:1014100010B504A902AA039800F01CF8044602A91A
:10142000002000F0B8F9204610BC5DF814FB000065
:101430009717000802E008C8121F08C1002AFAD155
:1014400070477047002001E001C1121F002AFBD144
:10145000704700002DE9FF4F8BB0884605460026F7
:1014600006E025280BD0DDE90D1290476D1C761C97
:1014700028780028F5D10FB03046BDE8F08F002461
:10148000A146A2460122AE4900E0044315F8013FFF
:10149000203B02FA03F00842F7D128782A2810D01E
:1014A0006FF02F022878A0F13001092915D809EB37
:1014B000890102EB410144F0020400EB01096D1CBB
:1014C000F0E758F8041B5FEA010903D544F400541F
:1014D000C9F1000944F002046D1C28782E2817D1A8
:1014E00015F8010F44F004042A280ED06FF02F02E3
:1014F0002878A0F1300109290AD80AEB8A0102EB09
:10150000410100EB010A6D1CF2E758F804AB6D1CB9
:1015100028786C280FD006DC4C2817D068280DD00E
:101520006A2814D104E0742810D07A280FD10DE075
:1015300044F400140AE044F4801401E044F440143C
:101540006978814202D104F580146D1C6D1C2878E5
:10155000692865D006DC00288DD0632827D0642850
:1015600006D15DE06E2808D073282AD0752877D080
:10157000DDE90D129047761CE0E0C4F3025002282A
:1015800009D003280DD0D8F8001004280DD00E6023
:1015900008F10408D2E0D8F80010F217C1E900629F
:1015A000F6E7D8F800100E80F2E70E70F0E718F8B2
:1015B000041B8DF8001000208DF80100EB4601207F
:1015C00003E058F804BB4FF0FF3061074FF000070D
:1015D00001D40AE07F1C57450DDA8742FADB1BF87D
:1015E00007100029F6D106E07F1C8742FCDB1BF8C0
:1015F00007100029F8D1DDE90D23A9EB070081468A
:10160000214600F0B1F83044C61904E0DDE90D12BE
:101610001BF8010B90477F1EF8D22146484688E010
:1016200058F8040BC4F302514FF00A0B032900D100
:1016300000B2042900D140B2002802DA40422D2134
:1016400002E0210505D52B218DF82410012104E0AD
:1016500006E0E10710D02021F6E708AF089113E07B
:1016600058F8040BC4F302514FF00A0B032900D1C0
:1016700080B2042900D1C0B20021EEE75946FEF73E
:101680009FFD303107F8011D0028F7D1ADEB0700B1
:1016900000F1200B600702D524F4803401E04FF004
:1016A000010ADA4502DDAAEB0B0000E000208246C9
:1016B00000EB0B0108980144A9EB01000A90E0033C
:1016C00006D4DDE90D2321460A9800F04DF80644C2
:1016D0004FF0000908E009A911F80900DDE90D1231
:1016E000904709F10109761C08998945F3DBE0036D
:1016F0000CD5DDE90D2321460A9800F035F80644A3
:1017000004E0DDE90D1230209047761CBAF10001AB
:10171000AAF1010AF5DC05E0DDE90D1217F8010B6D
:101720009047761CBBF10001ABF1010BF4DC0A9889
:101730002146DDE90D2300F005F806446D1C97E60F
:10174000092801002DE9F041044600251E461746F0
:10175000880404D405E039462020B0476D1C641E7F
:10176000F9D52846BDE8F0812DE9F0410446002571
:101770001E469046C80301D5302700E02027880484
:1017800004D505E041463846B0476D1C641EF9D5C6
:101790002846BDE8F0810A68531C0B601070704742
:1017A000002107E04AF6FF7100BF0A1EA1F1010304
:1017B00099B2FAD1021EA0F1010398B2F2D170479A
:1017C0007047000070B504460D46E1B20548FFF7CA
:1017D00006FE00BF80210348FFF736FD0028F9D040
:1017E000204670BD001001401CB501210846FEF7DF
:1017F000F7FF02208DF8050001208DF80700022078
:101800008DF8040000208DF806004FF40070009061
:1018100069460A48FEF770FD4FF480600090694603
:101820000648FEF769FD072209210448FEF758FE25
:1018300007220A210148FEF753FE1CBD00000240AA
:101840001CB501210846FEF7CBFF40200090002088
:101850008DF805008DF8070001208DF804000020A8
:101860008DF8060069460248FEF746FD1CBD0000E3
:101870000000024092B0FFF7E3FF40212B48FEF743
:1018800054FEFFF7B1FF00F093F8FEF77DFDFEF781
:10189000E3FEFEF754FE26A0FFF7A8FD2C4B0FCB6E
:1018A000CDE91023CDE90E0100210420FFF7ECFA69
:1018B0000EAA00212320FEF73FFF35E003A90020F8
:1018C000FFF748F99DF80E0000909DF80D309DF847
:1018D0000C2020A104A8FFF799FD04AA02210020F2
:1018E000FEF72AFF02A90020FFF7FAF89DF80A0088
:1018F00000909DF809309DF80B201BA104A8FFF76C
:1019000085FD04AA04210020FEF716FF9DF808209B
:101910001BA104A8FFF77AFD04AA06210020FEF708
:101920000BFFC820FEF777FCC8E70000000002406C
:10193000746869732069732073746D333266340A76
:10194000544845205254432054455354210A000022
:10195000081A000854696D653A253032643A25301A
:1019600032643A2530326400446174653A3230257D
:101970003032642D253032642D2530326400000071
:101980005765656B3A25640008B54FF4C060FEF7F3
:1019900059FE25208DF8000001208DF801008DF8FA
:1019A00002008DF803006846FEF710FE08BD000037
:1019B0001FB501210846FEF713FF01211020FEF795
:1019C0002FFF4FF4E13000900020ADF80400ADF897
:1019D0000600ADF80800ADF80C000C20ADF80A00C8
:1019E00069460848FFF78CFCFFF7CEFF012240F262
:1019F00025510448FFF75FFC01210248FFF718FC5E
:101A00001FBD0000001001405254432054494D4571
:101A100000000000000000000000000000000000C6
:101A20002F000000000700070000147F147F14003F
:101A3000242A7F2A120062640813230036495522A3
:101A40005000000503000000001C2241000000417E
:101A5000221C000014083E08140008083E08080074
:101A60000000A0600000080808080800006060008E
:101A700000002010080402003E5149453E0000428B
:101A80007F4000004261514946002141454B3100F1
:101A90001814127F10002745454539003C4A494932
:101AA00030000171090503003649494936000649ED
:101AB00049291E000036360000000056360000009E
:101AC00008142241000014141414140000412214BC
:101AD0000800020151090600324959513E007C12AA
:101AE00011127C007F49494936003E4141412200A4
:101AF0007F4141221C007F49494941007F09090972
:101B000001003E4149497A007F0808087F000041F2
:101B10007F4100002040413F01007F081422410026
:101B20007F40404040007F020C027F007F0408108D
:101B30007F003E4141413E007F09090906003E41C8
:101B400051215E007F091929460046494949310063
:101B500001017F0101003F4040403F001F20402025
:101B60001F003F4038403F0063140814630007081B
:101B700070080700615149454300007F4141000062
:101B8000552A552A55000041417F000004020102F8
:101B90000400404040404000000102040000205486
:101BA000545478007F48444438003844444420006A
:101BB000384444487F00385454541800087E0901C2
:101BC000020018A4A4A47C007F0804047800004448
:101BD0007D4000004080847D00007F10284400008C
:101BE00000417F4000007C04180478007C08040455
:101BF0007800384444443800FC2424241800182475
:101C00002418FC007C0804040800485454542000A4
:101C1000043F444020003C4040207C001C204020E9
:101C20001C003C4030403C004428102844001CA0CC
:101C3000A0A07C004464544C4414141414141400E4
:101C40000000000000000000000000000000000094
:101C50000000F80000000000000033300000000029
:101C6000100C06100C0600000000000000000040F0
:101C7000C07840C0784000043F04043F04040000E2
:101C80007088FC08300000001820FF211E0000F0C2
:101C900008F000E018000000211C031E211E0000B7
:101CA000F00888700000001E21232419272110103D
:101CB000160E000000000000000000000000000000
:101CC0000000E01804020000000007182040000097
:101CD000020418E000000000402018070000004047
:101CE0004080F0804040000202010F01020200002B
:101CF0000000F0000000000101011F0101010000CF
:101D00000000000000000080B07000000000000033
:101D100000000000000000000101010101010100BC
:101D20000000000000000000303000000000000053
:101D30000000008060180400601806010000000028
:101D4000E010080810E000000F102020100F000025
:101D50001010F8000000000020203F2020000000AC
:101D60007008080888700000302824222130000004
:101D7000300888884830000018202020110E00000C
:101D800000C02010F8000000070424243F240000B5
:101D9000F80888880808000019212020110E00008A
:101DA000E0108888180000000F112020110E00009C
:101DB000380808C83808000000003F000000000094
:101DC00070880808887000001C222121221C000055
:101DD000E010080810E0000000312222110F00007E
:101DE0000000C0C000000000000030300000000013
:101DF0000000800000000000008060000000000083
:101E0000008040201008000001020408102000405B
:101E10004040404040400004040404040404000026
:101E2000081020408000000020100804020100007B
:101E30007048080808F0000000003036010000C0BB
:101E400030C828E810E0000718272423140B0000EE
:101E500000C038E0000000203C23020227382008A0
:101E6000F8888888700000203F202020110E00C0D4
:101E7000300808080838000718202020100800083B
:101E8000F808080810E000203F202020100F00086C
:101E9000F88888E8081000203F2020232018000838
:101EA000F88888E8081000203F200003000000C0E8
:101EB0003008080838000007182020221E020008F9
:101EC000F808000008F808203F210101213F200008
:101ED0000808F8080800000020203F20200000002B
:101EE000000808F8080800C08080807F0000000813
:101EF000F888C028180800203F2001263820000854
:101F0000F8080000000000203F20202020300008BA
:101F1000F8F800F8F80800203F003F003F200008D4
:101F2000F830C00008F808203F200007183F00E004
:101F30001008080810E0000F10202020100F0008E3
:101F4000F808080808F000203F210101010000E026
:101F50001008080810E0000F18242438504F00081B
:101F6000F8888888887000203F2000030C3020000B
:101F7000708808080838000038202121221C001829
:101F80000808F8080818000000203F20000000089A
:101F9000F808000008F808001F202020201F000873
:101FA00078880000C83808000007380E010000F8E3
:101FB0000800F80008F800033C0700073C0300088D
:101FC0001868808068180820302C03032C30200803
:101FD00038C800C83808000000203F20000000106A
:101FE000080808C8380800203826212020180000DA
:101FF0000000FE020202000000007F40404000009E
:102000000C30C000000000000000010638C00000D5
:10201000020202FE000000004040407F000000007D
:1020200000040202020400000000000000000000A2
:1020300000000000000000808080808080808000A0
:102040000202040000000000000000000000000088
:10205000008080808000000019242222223F200876
:10206000F8008080000000003F112020110E0000C9
:1020700000008080800000000E1120202011000050
:102080000000808088F800000E112020103F200002
:1020900000808080800000001F2222222213000086
:1020A0008080F0888888180020203F2020000000D1
:1020B00000808080808000006B949494936000087E
:1020C000F8008080800000203F210000203F200099
:1020D000809898000000000020203F202000000091
:1020E0000000809898000000C08080807F00000879
:1020F000F8000080808000203F24022D3020000066
:102100000808F8000000000020203F202000008088
:1021100080808080808000203F20003F20003F8022
:1021200080008080800000203F210000203F2000B0
:1021300000808080800000001F202020201F008061
:102140008000808000000080FFA12020110E000090
:1021500000008080808000000E112020A0FF808081
:102160008080008080800020203F2120000100002E
:102170000080808080800000332424242419000003
:102180008080E0808000000000001F202000008090
:1021900080000000808000001F202020103F208051
:1021A0008080000080808000010E300806010080E1
:1021B000800080008080800F300C030C300F000006
:1021C000808000808080000020312E0E3120008031
:1021D0008080000080808080818E70180601000061
:1021E000808080808080000021302C2221300000FF
:1021F000000000807C020200000000003F40400020
:10220000000000FF00000000000000FF00000000D0
:1022100002027C800000000040403F0000000000FF
:10222000060101020204040000000000000000009A
:1022300050220008000000201C0000003414000898
:102240006C2200081C000020040400004414000854
:10225000000000000102030401020304060708094C
:0C22600000000000000000000000000072
:040000050800018965
:00000001FF
