:020000040800F2
:10000000000400209D0100082103000819030008D6
:100010001D030008E50100082D060008000000008F
:10002000000000000000000000000000D1040008F3
:10003000E90100080000000023030008C1050008D2
:10004000B7010008B7010008B7010008B7010008B0
:10005000B7010008B7010008B7010008B7010008A0
:10006000B7010008B7010008B7010008B701000890
:10007000B7010008B7010008B7010008B701000880
:10008000B7010008B7010008B7010008B701000870
:10009000B7010008B7010008B7010008B701000860
:1000A000B7010008B7010008B7010008B701000850
:1000B000B7010008B7010008B7010008B701000840
:1000C000B7010008B7010008B7010008B701000830
:1000D000B7010008B7010008B7010008B701000820
:1000E000B7010008B7010008B7010008B701000810
:1000F000B7010008B7010008B7010008B701000800
:10010000B7010008B7010008B7010008B7010008EF
:10011000B7010008B7010008B7010008B7010008DF
:10012000B7010008B7010008B7010008B7010008CF
:10013000B7010008B7010008B7010008B7010008BF
:10014000B7010008B7010008B7010008B7010008AF
:10015000B7010008B7010008B7010008B70100089F
:10016000B7010008B7010008B7010008B70100088F
:10017000B7010008B7010008B7010008B70100087F
:10018000B7010008B7010008DFF80CD000F018F83C
:10019000004800478D0600080004002006488047FC
:1001A00006480047FEE7FEE7FEE7FEE7FEE7FEE75C
:1001B000FEE7FEE7FEE7FEE7C50500088901000847
:1001C000064C074D06E0E06840F0010394E80700A4
:1001D00098471034AC42F6D3FFF7DAFFC8060008A0
:1001E000D806000800BFFEE77047F0B50A460021B8
:1001F0000023002400BF3DE0012505FA01F3156846
:1002000005EA03049C4234D105684F000326BE4032
:10021000B543056015794E00B54006683543056065
:100220001579012D02D01579022D16D185684F0060
:100230000326BE40B543856055794E00B5408668BB
:1002400035438560456801268E40B5434560456865
:1002500096798E40B6B235434560C5684F00032697
:10026000BE40B543C560D5794E00B540C66835433C
:10027000C560491C1029BFD3F0BD418370470AB146
:10028000018300E04183704738B5002400F05AF83C
:10029000012000F0BDF800F0FFF80446012C33D136
:1002A0001A48006840F080501849086018480068F3
:1002B00040F4404016490860002000F09DF84FF4DB
:1002C000A05000F0ADF8200300F0B6F8072002239C
:1002D0004FF4A87208210090C80400F0BFF8012074
:1002E00000F0B6F800BF392000F05EF80028FAD020
:1002F00040F2057007490860022000F0C1F800BF15
:1003000000F072F80828FBD138BD000040380240E8
:1003100000700040003C024000BFFEE700BFFEE767
:100320007047704729B1064A12680243044B1A60AD
:1003300004E0034A12688243014B1A6070470000D0
:10034000303802401448006840F00100124908604B
:1003500000201149083108600F4800680F49084023
:100360000D4908600E48091D08600E480A4984318D
:1003700008600B481038091D08600748006820F421
:10038000802005490860002003490C3108600249BB
:100390008C3108607047000000380240FFFFF6EA29
:1003A000103000240030002010B501460022002348
:1003B00000204A11012A02D10A4C236808E0022ACF
:1003C00003D1084C7034236802E0064C743423686F
:1003D00001F01F02012494401C400CB1012000E0F8
:1003E000002010BD003802400248006800F00C00F8
:1003F000704700000838024001460020034A106898
:1004000020F0F000084310607047000008380240F8
:100410000021024A117011460870704702380240EC
:1004200001460020034A106820F4E05008431060A1
:10043000704700000838024001460020034A106857
:1004400020F4604040EAC100106070470838024064
:1004500001490866704700000000474270B5049CDF
:1004600041EA82150126C6EB530645EA06450543D7
:1004700045EA0465014E356070BD00000438024055
:1004800001460020034A106820F003000843106072
:10049000704700000838024038B500200090002462
:1004A000002500BF3120FFF77FFF05460098401C64
:1004B00000900098B0F5A04F01D0002DF2D031206F
:1004C000FFF772FF08B1012400E00024204638BD88
:1004D000704700000CB5002001900090344800687F
:1004E00040F480303249086000BF3148006800F4B1
:1004F000003000900198401C0190009818B90198B4
:10050000B0F5A04FF1D12A48006800F4003010B1D6
:100510000120009001E0002000900098012846D1C1
:1005200023484030006840F0805021494031086045
:100530002048006840F440401E4908601C480830CC
:1005400000681B49083108600846006840F4004014
:1005500008600846006840F4A05008601648091F6B
:100560000860081F006840F08070091F086000BF25
:100570000F48006800F000700028F9D040F20570C4
:100580000E4908600A480830006820F00300084956
:10059000083108600846006840F00200086000BFAB
:1005A00003480830006800F00C000828F8D10CBDA2
:1005B000003802400070004019544007003C0240DF
:1005C0007047000010B51548006840F470001349EA
:1005D00008601348006840F00100114908600020DD
:1005E0000F49083108600E4800680E4908400C4960
:1005F00008600D48091D0860081F006820F480206D
:10060000091F0860002006490C310860FFF762FFEF
:100610004FF0006001498039086010BD88ED00E0AE
:1006200000380240FFFFF6FE1030002400BFFEE756
:1006300002E008C8121F08C1002AFAD170477047AB
:10064000002001E001C1121F002AFBD1704700E029
:10065000401E0028FCD170471CB501210846FFF759
:1006600061FE4020009003208DF8050000208DF8E9
:10067000070001208DF8040000208DF8060069466F
:100680000148FFF7B2FD1CBD00000240FFF7FCFD72
:10069000FFF7E2FF40210A48FFF7EFFD0FE00122DC
:1006A00040210748FFF7EBFD0648FFF7D0FF002287
:1006B00040210348FFF7E3FD0248FFF7C8FFEEE7DC
:1006C00000000240FFFF0F00D806000800000020D5
:0806D0000004000040060008D0
:040000050800018965
:00000001FF
