:020000040800F2
:10000000200400209D010008AD050008A50500089A
:10001000A9050008E50100083509000800000000F6
:10002000000000000000000000000000D9060008E9
:10003000A904000800000000AF050008C907000877
:10004000B7010008B7010008B7010008B7010008B0
:10005000B7010008B7010008B7010008B7010008A0
:10006000B7010008B7010008B7010008B701000890
:10007000B7010008B7010008B7010008B701000880
:10008000B7010008B7010008B7010008B701000870
:10009000B7010008B7010008B7010008B701000860
:1000A000B7010008B7010008B7010008B701000850
:1000B000B7010008B7010008B7010008B701000840
:1000C000B7010008B7010008B7010008B701000830
:1000D000B7010008B7010008B7010008B701000820
:1000E000B7010008B7010008B7010008B701000810
:1000F000B7010008B7010008B7010008B701000800
:10010000B7010008B7010008B7010008B7010008EF
:10011000B7010008B7010008B7010008B7010008DF
:10012000B7010008B7010008B7010008B7010008CF
:10013000B7010008B7010008B7010008B7010008BF
:10014000B7010008B7010008B7010008B7010008AF
:10015000B7010008B7010008B7010008B70100089F
:10016000B7010008B7010008B7010008B70100088F
:10017000B7010008B7010008B7010008B70100087F
:10018000B7010008B7010008DFF80CD000F018F83C
:1001900000480047F1090008200400200648804775
:1001A00006480047FEE7FEE7FEE7FEE7FEE7FEE75C
:1001B000FEE7FEE7FEE7FEE7CD070008890100083D
:1001C000064C074D06E0E06840F0010394E80700A4
:1001D00098471034AC42F6D3FFF7DAFFB00A0008B4
:1001E000D00A000800BFFEE721B1026842F0010218
:1001F000026003E0026822F0010202607047000022
:1002000010B590B04FF47A7000900121880500F08D
:10021000CFF91F4800F044F800BF1D4800F0ECF88B
:100220000028FAD14FF0006001901A4802901A4855
:1002300003904020049010200590002006904FF479
:10024000806007900020089009900A900B9001A907
:100250000F4800F0FDF801210D48FFF7C5FF4FF4EE
:100260007A70009000BF0A4800F0C6F8012804D058
:10027000009C601E0090002CF5D1009830B904E07D
:1002800000224021054800F088F9F9E710B010BDC0
:10029000B864024004100140100000200000024039
:1002A000016821F00101016000210160416081606D
:1002B000C1600161212141614A49884204D13D2147
:1002C000484A103A91608CE046491831884205D17D
:1002D0004FF47461434A103A916082E041493031F1
:1002E000884205D14FF474113E4A103A916078E08B
:1002F0003C494831884205D14FF07461394A103A7F
:1003000091606EE037496031884204D13649354A00
:10031000103AD16065E033497831884204D13349DD
:10032000304A103AD1605CE02E499031884204D1C5
:100330002F492C4A103AD16053E02A49A83188420B
:1003400005D14FF03D51274A103AD16049E0294983
:10035000884204D13D21274A083A116041E02549ED
:100360001831884205D14FF47461224A083A11606D
:1003700037E020493031884205D14FF474111D4ACD
:10038000083A11602DE01B494831884205D14FF0F1
:100390007461184A083A116023E0164960318842B6
:1003A00004D11149134A121F11601AE01149783122
:1003B000884204D10D490F4A121F116011E00D4906
:1003C0009031884204D10A490A4A121F116008E09C
:1003D0000849A831884204D14FF03D51054A121F07
:1003E00011607047106002403D000020400F002067
:1003F00000003D2010640240014600200A6802F01F
:1004000001020AB1012000E00020704730B5034628
:100410000A46002000240B4DAB4201D20A4901E0FC
:100420000849103902F000550DB14C6800E00C6825
:10043000064D2C4004EA02050DB1012000E0002029
:1004400030BD000010640240006002407D0F7D0F4F
:1004500010B500220268134B1A40CC680B68234386
:100460004C6923438C692343CC6923430C6A23439F
:100470004C6A23438C6A23434C6B23438C6B23438A
:100480001A430260426922F00702D1E90B34234388
:100490001A4342610B6943604B6883608B68C36099
:1004A00010BD00003F801CF0704701B502E00098CD
:1004B000401E009000980028F9D108BDF0B50A460A
:1004C00000210023002400BF3DE0012505FA01F3CF
:1004D000156805EA03049C4234D105684F000326E1
:1004E000BE40B543056015794E00B54006683543FA
:1004F00005601579012D02D01579022D16D1856878
:100500004F000326BE40B543856055794E00B54087
:10051000866835438560456801268E40B543456051
:10052000456896798E40B6B235434560C5684F0040
:100530000326BE40B543C560D5794E00B540C668B8
:100540003543C560491C1029BFD3F0BDF0B5002369
:1005500000244D07ED0E02FA05F3CE1000F1200540
:1005600055F826504E07F70E0F26BE40B543CF1064
:1005700000F1200646F82750CE1000F1200555F86E
:10058000265045EA0304CE1000F1200545F8264028
:10059000F0BD42694A40426170470AB1018300E000
:1005A0004183704700BFFEE700BFFEE7704770471A
:1005B00029B1064A12680243044B1A6004E0034A58
:1005C00012688243014B1A607047000030380240C5
:1005D00029B1064A12680243044B1A6004E0034A38
:1005E00012688243014B1A60704700004438024091
:1005F000F0B5002100220024022500260223324FFC
:100600003F6807F00C0121B1042905D0082937D132
:1006100005E02E4F076036E02D4F076033E02A4F8C
:100620003F1F3F68C7F38056274F3F1F3F6807F0C3
:100630003F036EB1264FB7FBF3F7DFF88CC0ACF188
:10064000040CDCF800C0CCF3881C07FB0CF40CE0B5
:100650001E4FB7FBF3F7DFF870C0ACF1040CDCF809
:1006600000C0CCF3881C07FB0CF4174F3F1F3F68FA
:10067000C7F301477F1C7D00B4FBF5F7076002E07C
:10068000124F076000BF00BF0F4F3F6807F0F00137
:100690000909104F7A5C0768D74047600A4F3F68E6
:1006A00007F4E051890A0B4F7A5C4768D7408760AE
:1006B000054F3F6807F46041490B064F7A5C476875
:1006C000D740C760F0BD0000083802400024F400A5
:1006D00040787D0100000020704700000CB500202C
:1006E000019000903448006840F48030324908603E
:1006F00000BF3148006800F4003000900198401CB1
:100700000190009818B90198B0F5A04FF1D12A488E
:10071000006800F4003010B10120009001E00020DA
:1007200000900098012846D123484030006840F0EE
:1007300080502149403108602048006840F4404022
:100740001E4908601C48083000681B4908310860D1
:100750000846006840F4004008600846006840F41D
:10076000A05008601648091F0860081F006840F084
:100770008070091F086000BF0F48006800F000701B
:100780000028F9D040F205700E4908600A48083088
:10079000006820F003000849083108600846006836
:1007A00040F00200086000BF03480830006800F015
:1007B0000C000828F8D10CBD003802400070004041
:1007C00008544007003C02407047000010B515482F
:1007D000006840F47000134908601348006840F056
:1007E00001001149086000200F49083108600E48D7
:1007F00000680E4908400C4908600D48091D086052
:10080000081F006820F48020091F086000200649A6
:100810000C310860FFF762FF4FF00060014980393A
:10082000086010BD88ED00E000380240FFFFF6FED2
:100830001030002421B1828942F40052828104E008
:1008400082894DF6FF731A40828170471AB1838AFC
:100850000B43838202E0838A8B43838270470000CC
:100860002DE9FF4705460E460024A14600BFA046DD
:10087000B08900B100BF2C8A24F44054F0880443AE
:100880002C82AC8941F20C608443B08831890843E2
:10089000718908430443AC81AC8A24F44074B08964
:1008A0000443AC826846FFF7A3FE2048854202D08D
:1008B0001F48854202D1DDF80C9001E0DDF8089078
:1008C000A88900F4004040B109EBC90000EB091011
:1008D00031684900B0FBF1F707E009EBC90000EB14
:1008E000091031688900B0FBF1F76420B7FBF0F024
:1008F00004012009642101FB1078A88900F400405C
:1009000040B1322000EBC800B0FBF1F000F007006E
:10091000044308E0322000EB08106421B0FBF1F042
:1009200000F00F0004432C81BDE8FF870010014058
:100930000014014000BFFEE702E008C8121F08C112
:10094000002AFAD170477047002001E001C1121F50
:10095000002AFBD1704700001CB501210846FFF7B3
:1009600027FE02208DF8050001208DF807000220E7
:100970008DF8040000208DF806004FF40070009000
:1009800069460A48FFF79AFD4FF480600090694677
:100990000648FFF793FD072209210448FFF7D6FD1B
:1009A00007220A210148FFF7D1FD1CBD00000240CB
:1009B0001CB501210846FFF7FBFD402000900020F8
:1009C0008DF8050001208DF807008DF80400002047
:1009D0008DF8060069460548FFF770FD80200090FD
:1009E00069460248FFF76AFD1CBD00000000024096
:1009F000FFF7DEFF012240211648FFF7CEFD01225E
:100A000080211448FFF7C9FDFFF7A6FF00F02CF87E
:100A1000FFF7F6FB002404E031200F490855601C65
:100A200084B2102CF8DB012280210C48FFF70EFF66
:100A300000BF4FF020510A48FFF7E8FC0028F8D02B
:100A400006E080210348FFF7A4FD0648FFF72DFDCF
:100A5000F7E70000000002401000002000100140F5
:100A6000B8640240FFFF0F001FB501210846FFF7E1
:100A70009FFD01211020FFF7ABFD4FF4E130009006
:100A80000020ADF80400ADF80600ADF80800ADF8A0
:100A90000C000C20ADF80A0069460448FFF7E0FEA0
:100AA00001210248FFF7C6FE1FBD000000100140F3
:100AB000D00A0008000000201000000038090008DB
:100AC000E00A000810000020100400004809000897
:100AD00000000000010203040102030406070809E4
:040000050800018965
:00000001FF
